{
  "contractName": "Crowdsale",
  "abi": [
    {
      "constant": true,
      "inputs": [],
      "name": "privateSaleHardCap",
      "outputs": [
        {
          "name": "",
          "type": "uint256"
        }
      ],
      "payable": false,
      "stateMutability": "view",
      "type": "function"
    },
    {
      "constant": true,
      "inputs": [],
      "name": "freezePeriod",
      "outputs": [
        {
          "name": "",
          "type": "uint256"
        }
      ],
      "payable": false,
      "stateMutability": "view",
      "type": "function"
    },
    {
      "constant": true,
      "inputs": [],
      "name": "icoFinishDate",
      "outputs": [
        {
          "name": "",
          "type": "uint256"
        }
      ],
      "payable": false,
      "stateMutability": "view",
      "type": "function"
    },
    {
      "constant": false,
      "inputs": [
        {
          "name": "_weiInFiat",
          "type": "uint256"
        }
      ],
      "name": "updateWeiInFiat",
      "outputs": [],
      "payable": false,
      "stateMutability": "nonpayable",
      "type": "function"
    },
    {
      "constant": true,
      "inputs": [],
      "name": "reserveFreezeTimestamp",
      "outputs": [
        {
          "name": "",
          "type": "uint256"
        }
      ],
      "payable": false,
      "stateMutability": "view",
      "type": "function"
    },
    {
      "constant": true,
      "inputs": [],
      "name": "fiatSymbol",
      "outputs": [
        {
          "name": "",
          "type": "string"
        }
      ],
      "payable": false,
      "stateMutability": "view",
      "type": "function"
    },
    {
      "constant": true,
      "inputs": [],
      "name": "icoFundsWithdrawn",
      "outputs": [
        {
          "name": "",
          "type": "bool"
        }
      ],
      "payable": false,
      "stateMutability": "view",
      "type": "function"
    },
    {
      "constant": true,
      "inputs": [
        {
          "name": "",
          "type": "uint256"
        }
      ],
      "name": "investorsList",
      "outputs": [
        {
          "name": "",
          "type": "address"
        }
      ],
      "payable": false,
      "stateMutability": "view",
      "type": "function"
    },
    {
      "constant": true,
      "inputs": [
        {
          "name": "",
          "type": "address"
        }
      ],
      "name": "whiteList",
      "outputs": [
        {
          "name": "",
          "type": "bool"
        }
      ],
      "payable": false,
      "stateMutability": "view",
      "type": "function"
    },
    {
      "constant": true,
      "inputs": [],
      "name": "weiRaised",
      "outputs": [
        {
          "name": "",
          "type": "uint256"
        }
      ],
      "payable": false,
      "stateMutability": "view",
      "type": "function"
    },
    {
      "constant": true,
      "inputs": [],
      "name": "tokensSold",
      "outputs": [
        {
          "name": "",
          "type": "uint256"
        }
      ],
      "payable": false,
      "stateMutability": "view",
      "type": "function"
    },
    {
      "constant": true,
      "inputs": [],
      "name": "wallet",
      "outputs": [
        {
          "name": "",
          "type": "address"
        }
      ],
      "payable": false,
      "stateMutability": "view",
      "type": "function"
    },
    {
      "constant": true,
      "inputs": [
        {
          "name": "",
          "type": "address"
        }
      ],
      "name": "tokensOrdered",
      "outputs": [
        {
          "name": "",
          "type": "uint256"
        }
      ],
      "payable": false,
      "stateMutability": "view",
      "type": "function"
    },
    {
      "constant": true,
      "inputs": [],
      "name": "preIcoPriceInFiatFracture",
      "outputs": [
        {
          "name": "",
          "type": "uint256"
        }
      ],
      "payable": false,
      "stateMutability": "view",
      "type": "function"
    },
    {
      "constant": true,
      "inputs": [],
      "name": "icoPriceInFiatFracture",
      "outputs": [
        {
          "name": "",
          "type": "uint256"
        }
      ],
      "payable": false,
      "stateMutability": "view",
      "type": "function"
    },
    {
      "constant": true,
      "inputs": [],
      "name": "preIcoStartDate",
      "outputs": [
        {
          "name": "",
          "type": "uint256"
        }
      ],
      "payable": false,
      "stateMutability": "view",
      "type": "function"
    },
    {
      "constant": true,
      "inputs": [],
      "name": "privateSaleStartDate",
      "outputs": [
        {
          "name": "",
          "type": "uint256"
        }
      ],
      "payable": false,
      "stateMutability": "view",
      "type": "function"
    },
    {
      "constant": true,
      "inputs": [],
      "name": "currentHardCap",
      "outputs": [
        {
          "name": "",
          "type": "uint256"
        }
      ],
      "payable": false,
      "stateMutability": "view",
      "type": "function"
    },
    {
      "constant": true,
      "inputs": [],
      "name": "owner",
      "outputs": [
        {
          "name": "",
          "type": "address"
        }
      ],
      "payable": false,
      "stateMutability": "view",
      "type": "function"
    },
    {
      "constant": true,
      "inputs": [],
      "name": "privateSaleWeiRaised",
      "outputs": [
        {
          "name": "",
          "type": "uint256"
        }
      ],
      "payable": false,
      "stateMutability": "view",
      "type": "function"
    },
    {
      "constant": true,
      "inputs": [],
      "name": "totalWhiteListed",
      "outputs": [
        {
          "name": "",
          "type": "uint256"
        }
      ],
      "payable": false,
      "stateMutability": "view",
      "type": "function"
    },
    {
      "constant": true,
      "inputs": [],
      "name": "privatePriceInFiatFracture",
      "outputs": [
        {
          "name": "",
          "type": "uint256"
        }
      ],
      "payable": false,
      "stateMutability": "view",
      "type": "function"
    },
    {
      "constant": true,
      "inputs": [],
      "name": "icoWeiRaised",
      "outputs": [
        {
          "name": "",
          "type": "uint256"
        }
      ],
      "payable": false,
      "stateMutability": "view",
      "type": "function"
    },
    {
      "constant": true,
      "inputs": [],
      "name": "weiInFiat",
      "outputs": [
        {
          "name": "",
          "type": "uint256"
        }
      ],
      "payable": false,
      "stateMutability": "view",
      "type": "function"
    },
    {
      "constant": true,
      "inputs": [],
      "name": "preIcoHardCap",
      "outputs": [
        {
          "name": "",
          "type": "uint256"
        }
      ],
      "payable": false,
      "stateMutability": "view",
      "type": "function"
    },
    {
      "constant": true,
      "inputs": [],
      "name": "preIcoWeiRaised",
      "outputs": [
        {
          "name": "",
          "type": "uint256"
        }
      ],
      "payable": false,
      "stateMutability": "view",
      "type": "function"
    },
    {
      "constant": true,
      "inputs": [],
      "name": "lastUpdated",
      "outputs": [
        {
          "name": "",
          "type": "uint256"
        }
      ],
      "payable": false,
      "stateMutability": "view",
      "type": "function"
    },
    {
      "constant": true,
      "inputs": [],
      "name": "generalHardCap",
      "outputs": [
        {
          "name": "",
          "type": "uint256"
        }
      ],
      "payable": false,
      "stateMutability": "view",
      "type": "function"
    },
    {
      "constant": true,
      "inputs": [],
      "name": "icoHardCap",
      "outputs": [
        {
          "name": "",
          "type": "uint256"
        }
      ],
      "payable": false,
      "stateMutability": "view",
      "type": "function"
    },
    {
      "constant": true,
      "inputs": [],
      "name": "icoStartDate",
      "outputs": [
        {
          "name": "",
          "type": "uint256"
        }
      ],
      "payable": false,
      "stateMutability": "view",
      "type": "function"
    },
    {
      "constant": true,
      "inputs": [
        {
          "name": "",
          "type": "uint256"
        }
      ],
      "name": "withdrawnState",
      "outputs": [
        {
          "name": "",
          "type": "bool"
        }
      ],
      "payable": false,
      "stateMutability": "view",
      "type": "function"
    },
    {
      "constant": true,
      "inputs": [],
      "name": "crowdsaleState",
      "outputs": [
        {
          "name": "",
          "type": "uint8"
        }
      ],
      "payable": false,
      "stateMutability": "view",
      "type": "function"
    },
    {
      "constant": true,
      "inputs": [],
      "name": "preIcoFundsWithdrawn",
      "outputs": [
        {
          "name": "",
          "type": "bool"
        }
      ],
      "payable": false,
      "stateMutability": "view",
      "type": "function"
    },
    {
      "constant": true,
      "inputs": [],
      "name": "frozenReserve",
      "outputs": [
        {
          "name": "",
          "type": "uint256"
        }
      ],
      "payable": false,
      "stateMutability": "view",
      "type": "function"
    },
    {
      "constant": false,
      "inputs": [
        {
          "name": "newOwner",
          "type": "address"
        }
      ],
      "name": "transferOwnership",
      "outputs": [],
      "payable": false,
      "stateMutability": "nonpayable",
      "type": "function"
    },
    {
      "constant": true,
      "inputs": [],
      "name": "fiatDecimals",
      "outputs": [
        {
          "name": "",
          "type": "uint256"
        }
      ],
      "payable": false,
      "stateMutability": "view",
      "type": "function"
    },
    {
      "constant": true,
      "inputs": [],
      "name": "privateSaleFundsWithdrawn",
      "outputs": [
        {
          "name": "",
          "type": "bool"
        }
      ],
      "payable": false,
      "stateMutability": "view",
      "type": "function"
    },
    {
      "constant": true,
      "inputs": [],
      "name": "token",
      "outputs": [
        {
          "name": "",
          "type": "address"
        }
      ],
      "payable": false,
      "stateMutability": "view",
      "type": "function"
    },
    {
      "inputs": [
        {
          "name": "_privateSaleStartDate",
          "type": "uint256"
        },
        {
          "name": "_preIcoStartDate",
          "type": "uint256"
        },
        {
          "name": "_icoStartDate",
          "type": "uint256"
        },
        {
          "name": "_icoFinishDate",
          "type": "uint256"
        },
        {
          "name": "_wallet",
          "type": "address"
        },
        {
          "name": "_foundersWallet",
          "type": "address"
        }
      ],
      "payable": false,
      "stateMutability": "nonpayable",
      "type": "constructor"
    },
    {
      "payable": true,
      "stateMutability": "payable",
      "type": "fallback"
    },
    {
      "anonymous": false,
      "inputs": [
        {
          "indexed": false,
          "name": "_receiver",
          "type": "address"
        },
        {
          "indexed": false,
          "name": "_amount",
          "type": "uint256"
        }
      ],
      "name": "ManualTokenSend",
      "type": "event"
    },
    {
      "anonymous": false,
      "inputs": [
        {
          "indexed": false,
          "name": "_oldState",
          "type": "uint8"
        },
        {
          "indexed": false,
          "name": "_newState",
          "type": "uint8"
        }
      ],
      "name": "StateHasChanged",
      "type": "event"
    },
    {
      "anonymous": false,
      "inputs": [
        {
          "indexed": false,
          "name": "_wallet",
          "type": "address"
        },
        {
          "indexed": false,
          "name": "_amount",
          "type": "uint256"
        },
        {
          "indexed": false,
          "name": "_stage",
          "type": "uint256"
        }
      ],
      "name": "FundsWithdrawn",
      "type": "event"
    },
    {
      "anonymous": false,
      "inputs": [
        {
          "indexed": false,
          "name": "_oldWallet",
          "type": "address"
        },
        {
          "indexed": false,
          "name": "_newWallet",
          "type": "address"
        }
      ],
      "name": "WalletHasChanged",
      "type": "event"
    },
    {
      "anonymous": false,
      "inputs": [
        {
          "indexed": false,
          "name": "_oldDate",
          "type": "uint256"
        },
        {
          "indexed": false,
          "name": "_newDate",
          "type": "uint256"
        }
      ],
      "name": "PrivateSaleStartDateMoved",
      "type": "event"
    },
    {
      "anonymous": false,
      "inputs": [
        {
          "indexed": false,
          "name": "_oldDate",
          "type": "uint256"
        },
        {
          "indexed": false,
          "name": "_newDate",
          "type": "uint256"
        }
      ],
      "name": "PreIcoStartDateMoved",
      "type": "event"
    },
    {
      "anonymous": false,
      "inputs": [
        {
          "indexed": false,
          "name": "_oldDate",
          "type": "uint256"
        },
        {
          "indexed": false,
          "name": "_newDate",
          "type": "uint256"
        }
      ],
      "name": "IcoStartDateMoved",
      "type": "event"
    },
    {
      "anonymous": false,
      "inputs": [
        {
          "indexed": false,
          "name": "_oldDate",
          "type": "uint256"
        },
        {
          "indexed": false,
          "name": "_newDate",
          "type": "uint256"
        }
      ],
      "name": "IcoFinishDateMoved",
      "type": "event"
    },
    {
      "anonymous": false,
      "inputs": [
        {
          "indexed": false,
          "name": "_orderer",
          "type": "address"
        },
        {
          "indexed": false,
          "name": "_amount",
          "type": "uint256"
        },
        {
          "indexed": false,
          "name": "_currentWeiInFiat",
          "type": "uint256"
        }
      ],
      "name": "TokensAreOrdered",
      "type": "event"
    },
    {
      "anonymous": false,
      "inputs": [
        {
          "indexed": false,
          "name": "_retriever",
          "type": "address"
        },
        {
          "indexed": false,
          "name": "_amount",
          "type": "uint256"
        }
      ],
      "name": "TokensAreRetrieved",
      "type": "event"
    },
    {
      "anonymous": false,
      "inputs": [
        {
          "indexed": false,
          "name": "_receiver",
          "type": "address"
        },
        {
          "indexed": false,
          "name": "_unfreezeTimestamp",
          "type": "uint256"
        }
      ],
      "name": "FrozenReserveRetrieved",
      "type": "event"
    },
    {
      "anonymous": false,
      "inputs": [
        {
          "indexed": false,
          "name": "user",
          "type": "address"
        },
        {
          "indexed": false,
          "name": "whiteListedNum",
          "type": "uint256"
        }
      ],
      "name": "LogWhiteListed",
      "type": "event"
    },
    {
      "anonymous": false,
      "inputs": [
        {
          "indexed": false,
          "name": "whiteListedNum",
          "type": "uint256"
        }
      ],
      "name": "LogWhiteListedMultiple",
      "type": "event"
    },
    {
      "anonymous": false,
      "inputs": [
        {
          "indexed": false,
          "name": "_oldRate",
          "type": "uint256"
        },
        {
          "indexed": false,
          "name": "_newRate",
          "type": "uint256"
        }
      ],
      "name": "RateUpdated",
      "type": "event"
    },
    {
      "anonymous": false,
      "inputs": [
        {
          "indexed": true,
          "name": "previousOwner",
          "type": "address"
        },
        {
          "indexed": true,
          "name": "newOwner",
          "type": "address"
        }
      ],
      "name": "OwnershipTransferred",
      "type": "event"
    },
    {
      "constant": true,
      "inputs": [],
      "name": "getInvestorsListLength",
      "outputs": [
        {
          "name": "",
          "type": "uint256"
        }
      ],
      "payable": false,
      "stateMutability": "view",
      "type": "function"
    },
    {
      "constant": false,
      "inputs": [
        {
          "name": "_sender",
          "type": "address"
        }
      ],
      "name": "buyTokens",
      "outputs": [],
      "payable": true,
      "stateMutability": "payable",
      "type": "function"
    },
    {
      "constant": false,
      "inputs": [],
      "name": "receiveOrderedTokens",
      "outputs": [],
      "payable": false,
      "stateMutability": "nonpayable",
      "type": "function"
    },
    {
      "constant": false,
      "inputs": [],
      "name": "checkState",
      "outputs": [],
      "payable": false,
      "stateMutability": "nonpayable",
      "type": "function"
    },
    {
      "constant": false,
      "inputs": [
        {
          "name": "_user",
          "type": "address"
        }
      ],
      "name": "addToWhiteList",
      "outputs": [
        {
          "name": "",
          "type": "bool"
        }
      ],
      "payable": false,
      "stateMutability": "nonpayable",
      "type": "function"
    },
    {
      "constant": false,
      "inputs": [
        {
          "name": "_users",
          "type": "address[]"
        }
      ],
      "name": "addToWhiteListMultiple",
      "outputs": [
        {
          "name": "",
          "type": "bool"
        }
      ],
      "payable": false,
      "stateMutability": "nonpayable",
      "type": "function"
    },
    {
      "constant": false,
      "inputs": [
        {
          "name": "_receiver",
          "type": "address"
        }
      ],
      "name": "receiveFrozenReserve",
      "outputs": [],
      "payable": false,
      "stateMutability": "nonpayable",
      "type": "function"
    },
    {
      "constant": false,
      "inputs": [],
      "name": "prepareCrowdsale",
      "outputs": [],
      "payable": false,
      "stateMutability": "nonpayable",
      "type": "function"
    },
    {
      "constant": false,
      "inputs": [
        {
          "name": "_participant",
          "type": "address"
        }
      ],
      "name": "addPrivateParticipant",
      "outputs": [],
      "payable": false,
      "stateMutability": "nonpayable",
      "type": "function"
    },
    {
      "constant": false,
      "inputs": [
        {
          "name": "_newWallet",
          "type": "address"
        }
      ],
      "name": "setWallet",
      "outputs": [],
      "payable": false,
      "stateMutability": "nonpayable",
      "type": "function"
    },
    {
      "constant": false,
      "inputs": [
        {
          "name": "_newDate",
          "type": "uint256"
        }
      ],
      "name": "setPrivateSaleStartDate",
      "outputs": [],
      "payable": false,
      "stateMutability": "nonpayable",
      "type": "function"
    },
    {
      "constant": false,
      "inputs": [
        {
          "name": "_newDate",
          "type": "uint256"
        }
      ],
      "name": "setPreIcoStartDate",
      "outputs": [],
      "payable": false,
      "stateMutability": "nonpayable",
      "type": "function"
    },
    {
      "constant": false,
      "inputs": [
        {
          "name": "_newDate",
          "type": "uint256"
        }
      ],
      "name": "setIcoStartDate",
      "outputs": [],
      "payable": false,
      "stateMutability": "nonpayable",
      "type": "function"
    },
    {
      "constant": false,
      "inputs": [
        {
          "name": "_newDate",
          "type": "uint256"
        }
      ],
      "name": "setIcoFinishDate",
      "outputs": [],
      "payable": false,
      "stateMutability": "nonpayable",
      "type": "function"
    },
    {
      "constant": false,
      "inputs": [
        {
          "name": "_receiver",
          "type": "address"
        },
        {
          "name": "_amount",
          "type": "uint256"
        }
      ],
      "name": "manualReserve",
      "outputs": [],
      "payable": false,
      "stateMutability": "nonpayable",
      "type": "function"
    },
    {
      "constant": false,
      "inputs": [],
      "name": "withdraw",
      "outputs": [],
      "payable": false,
      "stateMutability": "nonpayable",
      "type": "function"
    }
  ],
  "bytecode": "0x60606040526016805460ff199081169091556018805482169055601a805482169055601c805460a060020a60ff021916905560228054909116905534156200004657600080fd5b60405160c080620032d48339810160405280805191906020018051919060200180519190602001805191906020018051919060200180519150604090508051908101604052600381527f4555520000000000000000000000000000000000000000000000000000000000602082015260008054600160a060020a03191633600160a060020a031617905560026001828051620000e7929160200190620001ce565b506002555060008611620000fa57600080fd5b8585116200010757600080fd5b8484116200011457600080fd5b600160a060020a03821615156200012a57600080fd5b600160a060020a03811615156200014057600080fd5b600f869055601085905560118490556012839055601c8054600160a060020a031916600160a060020a038416179055806200017a62000253565b600160a060020a039091168152602001604051809103906000f0801515620001a157600080fd5b601d8054600160a060020a031916600160a060020a03929092169190911790555062000284945050505050565b828054600181600116156101000203166002900490600052602060002090601f016020900481019282601f106200021157805160ff191683800117855562000241565b8280016001018555821562000241579182015b828111156200024157825182559160200191906001019062000224565b506200024f92915062000264565b5090565b604051610a98806200283c83390190565b6200028191905b808211156200024f57600081556001016200026b565b90565b6125a880620002946000396000f30060606040526004361061026e5763ffffffff60e060020a6000350416630912b9b781146102795780630a3cb6631461029e5780630db111cb146102b15780631755bf3d146102c45780631abff816146102da5780631b0dbdaf146102ed57806327631d021461030f578063276ec457146103995780632ccc8727146103c0578063372c12b1146103f257806339c1904d146104115780633ccfd60b146104275780634042b66f1461043a57806347ee03941461044d5780634a1c13cd1461046c578063518ab2a814610482578063521eb2731461049557806353186c8c146104a85780635cac2917146104be57806369d3720c146104dd5780636ca27edc146104f057806379c3199d1461050357806386d2fe57146105165780638c585f5f146105295780638da5cb5b1461053c57806396dfcbea1461054f57806396f85f1614610562578063980a369114610581578063985585e1146105a05780639fec8e3b146105b3578063a07b206f146105d1578063a96d3141146105e4578063ae32ac45146105f7578063b12005691461060d578063b24a129014610620578063b2c560d214610633578063b62a86a814610646578063bf77566014610659578063d0b06f5d1461066c578063d122ca4e1461067f578063d33e225a14610692578063d3a106e5146106a5578063d73019e9146106b8578063db054c2f146106cb578063deaa59df146106e1578063e084a81914610700578063e7bb523314610713578063ec8ac4d81461074a578063efcdcb8b1461075e578063efe6980a14610771578063f2fde38b14610784578063f5890e46146107a3578063f80b99ef146107b6578063fc0c546a146107c9575b610277336107dc565b005b341561028457600080fd5b61028c610d25565b60405190815260200160405180910390f35b34156102a957600080fd5b61028c610d2b565b34156102bc57600080fd5b61028c610d33565b34156102cf57600080fd5b610277600435610d39565b34156102e557600080fd5b61028c610da6565b34156102f857600080fd5b610277600160a060020a0360043516602435610dac565b341561031a57600080fd5b61032261106c565b60405160208082528190810183818151815260200191508051906020019080838360005b8381101561035e578082015183820152602001610346565b50505050905090810190601f16801561038b5780820380516001836020036101000a031916815260200191505b509250505060405180910390f35b34156103a457600080fd5b6103ac61110a565b604051901515815260200160405180910390f35b34156103cb57600080fd5b6103d6600435611113565b604051600160a060020a03909116815260200160405180910390f35b34156103fd57600080fd5b6103ac600160a060020a036004351661113b565b341561041c57600080fd5b61027760043561114f565b341561043257600080fd5b610277611217565b341561044557600080fd5b61028c611597565b341561045857600080fd5b6103ac600160a060020a036004351661159d565b341561047757600080fd5b61027760043561166e565b341561048d57600080fd5b61028c611739565b34156104a057600080fd5b6103d661173f565b34156104b357600080fd5b61027760043561174e565b34156104c957600080fd5b61028c600160a060020a03600435166117e4565b34156104e857600080fd5b61028c6117f6565b34156104fb57600080fd5b61028c6117fc565b341561050e57600080fd5b61028c611802565b341561052157600080fd5b61028c611808565b341561053457600080fd5b61028c61180e565b341561054757600080fd5b6103d6611814565b341561055a57600080fd5b610277611823565b341561056d57600080fd5b610277600160a060020a0360043516611b2c565b341561058c57600080fd5b610277600160a060020a0360043516611ceb565b34156105ab57600080fd5b61028c611d3f565b34156105be57600080fd5b6103ac6004803560248101910135611d45565b34156105dc57600080fd5b61028c611e53565b34156105ef57600080fd5b61028c611e59565b341561060257600080fd5b610277600435611e5f565b341561061857600080fd5b61028c611ef6565b341561062b57600080fd5b61028c611efc565b341561063e57600080fd5b61028c611f02565b341561065157600080fd5b61028c611f09565b341561066457600080fd5b61028c611f0f565b341561067757600080fd5b61028c611f15565b341561068a57600080fd5b61028c611f1b565b341561069d57600080fd5b61028c611f21565b34156106b057600080fd5b610277611f27565b34156106c357600080fd5b61028c61209d565b34156106d657600080fd5b6103ac6004356120a3565b34156106ec57600080fd5b610277600160a060020a03600435166120ca565b341561070b57600080fd5b610277612193565b341561071e57600080fd5b6107266123cc565b6040518082600481111561073657fe5b60ff16815260200191505060405180910390f35b610277600160a060020a03600435166107dc565b341561076957600080fd5b6103ac6123dc565b341561077c57600080fd5b61028c6123e5565b341561078f57600080fd5b610277600160a060020a03600435166123ed565b34156107ae57600080fd5b61028c612488565b34156107c157600080fd5b6103ac61248e565b34156107d457600080fd5b6103d6612497565b6022546000908190819081908190819060ff16156107f957600080fd5b6022805460ff1916600117905561080e611823565b600160a060020a038716151561082357600080fd5b6000601c5460a060020a900460ff16600481111561083d57fe5b141561084857600080fd5b6004601c5460a060020a900460ff16600481111561086257fe5b141561086d57600080fd5b67016345785d8a000034101561088257600080fd5b6003546000901161089257600080fd5b6001601c5460a060020a900460ff1660048111156108ac57fe5b14156108d957600160a060020a03871660009081526021602052604090205460ff1615156108d957600080fd5b600160a060020a038716600090815260208052604090205460ff1615156108ff57600080fd5b60035434965061091690879063ffffffff6124a616565b94506001601c5460a060020a900460ff16600481111561093257fe5b1415610942576007549250610992565b6002601c5460a060020a900460ff16600481111561095c57fe5b141561096c576008549250610992565b6003601c5460a060020a900460ff16600481111561098657fe5b14156109925760095492505b6109a2858463ffffffff6124a616565b9350600084116109b157600080fd5b600b546013546109c7908663ffffffff6124c216565b1115610a2157601354600b546109e29163ffffffff6124d816565b600354909450610a08906109fc868663ffffffff6124ea16565b9063ffffffff6124ea16565b9050610a1a868263ffffffff6124d816565b9150610a24565b50845b601354610a37908563ffffffff6124c216565b601355601454610a4d908263ffffffff6124c216565b6014556001601c5460a060020a900460ff166004811115610a6a57fe5b1415610a8b57601554610a83908263ffffffff6124c216565b601555610afd565b6002601c5460a060020a900460ff166004811115610aa557fe5b1415610ac657601754610abe908263ffffffff6124c216565b601755610afd565b6003601c5460a060020a900460ff166004811115610ae057fe5b1415610afd57601954610af9908263ffffffff6124c216565b6019555b601d54600160a060020a03166370a082318860006040516020015260405160e060020a63ffffffff8416028152600160a060020a039091166004820152602401602060405180830381600087803b1515610b5657600080fd5b6102c65a03f11515610b6757600080fd5b505050604051805115159050610bbc576006805460018101610b898382612515565b506000918252602090912001805473ffffffffffffffffffffffffffffffffffffffff1916600160a060020a0389161790555b6000821115610bf657600160a060020a03871682156108fc0283604051600060405180830381858888f193505050501515610bf657600080fd5b601d54610c6c90600160a060020a031663313ce5676000604051602001526040518163ffffffff1660e060020a028152600401602060405180830381600087803b1515610c4257600080fd5b6102c65a03f11515610c5357600080fd5b5050506040518051869150600a0a63ffffffff6124ea16565b600160a060020a0388166000908152601e6020526040902054909450610c98908563ffffffff6124c216565b600160a060020a0388166000908152601e602052604090819020919091556003547fb794cb9cc471caae752d175fddbc2f267fe684f1a107b2f19f44a95e602648b69189918791518084600160a060020a0316600160a060020a03168152602001838152602001828152602001935050505060405180910390a150506022805460ff191690555050505050565b600c5481565b6301e1338081565b60125481565b60005433600160a060020a03908116911614610d5457600080fd5b60008111610d6157600080fd5b7fb38780ddde1f073d91c150de2696f3f7085883648ba21cc5ef01029cb21d19166003548260405191825260208201526040908101905180910390a160035542600455565b60055481565b60005433600160a060020a03908116911614610dc757600080fd5b60225460ff1615610dd757600080fd5b6022805460ff19166001179055610dec611823565b600160a060020a0382161515610e0157600080fd5b60008111610e0e57600080fd5b6000601c5460a060020a900460ff166004811115610e2857fe5b14158015610e4e57506004601c5460a060020a900460ff166004811115610e4b57fe5b14155b1515610e5957600080fd5b600b54601354610e6f908363ffffffff6124c216565b10610e7957600080fd5b6001601c5460a060020a900460ff166004811115610e9357fe5b1415610ec057600160a060020a03821660009081526021602052604090205460ff161515610ec057600080fd5b600160a060020a038216600090815260208052604090205460ff161515610ee657600080fd5b601d54600160a060020a03166370a082318360006040516020015260405160e060020a63ffffffff8416028152600160a060020a039091166004820152602401602060405180830381600087803b1515610f3f57600080fd5b6102c65a03f11515610f5057600080fd5b505050604051805115159050610fa5576006805460018101610f728382612515565b506000918252602090912001805473ffffffffffffffffffffffffffffffffffffffff1916600160a060020a0384161790555b601354610fb8908263ffffffff6124c216565b601355600160a060020a0382166000908152601e6020526040902054610fe4908263ffffffff6124c216565b600160a060020a0383166000908152601e602052604090819020919091556003547fb794cb9cc471caae752d175fddbc2f267fe684f1a107b2f19f44a95e602648b69184918491518084600160a060020a0316600160a060020a03168152602001838152602001828152602001935050505060405180910390a150506022805460ff19169055565b60018054600181600116156101000203166002900480601f0160208091040260200160405190810160405280929190818152602001828054600181600116156101000203166002900480156111025780601f106110d757610100808354040283529160200191611102565b820191906000526020600020905b8154815290600101906020018083116110e557829003601f168201915b505050505081565b601a5460ff1681565b600680548290811061112157fe5b600091825260209091200154600160a060020a0316905081565b602080526000908152604090205460ff1681565b60005433600160a060020a0390811691161461116a57600080fd5b611172611823565b6000601c5460a060020a900460ff16600481111561118c57fe5b14806111af57506001601c5460a060020a900460ff1660048111156111ad57fe5b145b15156111ba57600080fd5b600f5481116111c857600080fd5b60115481106111d657600080fd5b7f9294d04a272cdf981934ca76de43865446ea70e949478d270dad1e6d90b5960e6010548260405191825260208201526040908101905180910390a1601055565b60005433600160a060020a0390811691161461123257600080fd5b60225460ff161561124257600080fd5b6022805460ff19166001179055611257611823565b6000601c5460a060020a900460ff16600481111561127157fe5b1161127b57600080fd5b601b6112a96001601c60149054906101000a900460ff16600481111561129d57fe5b9063ffffffff6124d816565b600481106112b357fe5b60208082049092015460ff929091066101000a900416156112d357600080fd5b6001601c5460a060020a900460ff1660048111156112ed57fe5b1180156113025750601b54610100900460ff16155b156113b857601b805461ff001916610100179055601c546015547ffbc3a599b784fe88772fc5abcc07223f64ca0b13acc341f4fb1e46bef0510eb491600160a060020a03169060016040518084600160a060020a0316600160a060020a03168152602001838152602001828152602001935050505060405180910390a1601c54601554600160a060020a039091169080156108fc0290604051600060405180830381858888f1935050505015156113b857600080fd5b6002601c5460a060020a900460ff1660048111156113d257fe5b1180156113e85750601b5462010000900460ff16155b156114a057601b805462ff0000191662010000179055601c546017547ffbc3a599b784fe88772fc5abcc07223f64ca0b13acc341f4fb1e46bef0510eb491600160a060020a03169060026040518084600160a060020a0316600160a060020a03168152602001838152602001828152602001935050505060405180910390a1601c54601754600160a060020a039091169080156108fc0290604051600060405180830381858888f1935050505015156114a057600080fd5b6003601c5460a060020a900460ff1660048111156114ba57fe5b1180156114d15750601b546301000000900460ff16155b1561158b57601b805463ff00000019166301000000179055601c546019547ffbc3a599b784fe88772fc5abcc07223f64ca0b13acc341f4fb1e46bef0510eb491600160a060020a03169060036040518084600160a060020a0316600160a060020a03168152602001838152602001828152602001935050505060405180910390a1601c54601954600160a060020a039091169080156108fc0290604051600060405180830381858888f19350505050151561158b57600080fd5b6022805460ff19169055565b60145481565b6000805433600160a060020a039081169116146115b957600080fd5b600160a060020a03821615156115ce57600080fd5b600160a060020a038216600090815260208052604090205460ff16151561166657600160a060020a038216600090815260208052604090819020805460ff19166001908117909155601f8054909101908190557f88eb615cbff4540422d181389333a5c75e3d5eb98dd55fb176e3a615ddfd0f1f9184919051600160a060020a03909216825260208201526040908101905180910390a15b506001919050565b60005433600160a060020a0390811691161461168957600080fd5b611691611823565b6003601c5460a060020a900460ff1660048111156116ab57fe5b141580156116d157506004601c5460a060020a900460ff1660048111156116ce57fe5b14155b15156116dc57600080fd5b60105481116116ea57600080fd5b60125481106116f857600080fd5b7f8d20f8b7089681de055ef410b1e22f13b3a44b8cda9145df73902b0505115c1c6011548260405191825260208201526040908101905180910390a1601155565b60135481565b601c54600160a060020a031681565b60005433600160a060020a0390811691161461176957600080fd5b611771611823565b6000601c5460a060020a900460ff16600481111561178b57fe5b1461179557600080fd5b60105481106117a357600080fd5b7fefe29dae758f051a9c039b9f34ee371f674e06edf12f196cfeda8a42131fdfe5600f548260405191825260208201526040908101905180910390a1600f55565b601e6020526000908152604090205481565b60085481565b60095481565b60105481565b600f5481565b600b5481565b600054600160a060020a031681565b600f5442101561185057601c805474ff000000000000000000000000000000000000000019169055611b2a565b600f544210158015611863575060105442105b15611902576001601c5460a060020a900460ff16600481111561188257fe5b146118fd5760008051602061255d83398151915260006001604051808360048111156118aa57fe5b60ff1681526020018260048111156118be57fe5b60ff1681526020019250505060405180910390a1601c805474ff0000000000000000000000000000000000000000191660a060020a179055600c54600b555b611b2a565b6010544210158015611915575060115442105b156119c4576002601c5460a060020a900460ff16600481111561193457fe5b146118fd5760008051602061255d833981519152600160026040518083600481111561195c57fe5b60ff16815260200182600481111561197057fe5b60ff1681526020019250505060405180910390a1601c805474ff0000000000000000000000000000000000000000191674020000000000000000000000000000000000000000179055600d54600b55611b2a565b60115442101580156119d7575060125442105b15611a86576003601c5460a060020a900460ff1660048111156119f657fe5b146118fd5760008051602061255d8339815191526002600360405180836004811115611a1e57fe5b60ff168152602001826004811115611a3257fe5b60ff1681526020019250505060405180910390a1601c805474ff0000000000000000000000000000000000000000191674030000000000000000000000000000000000000000179055600e54600b55611b2a565b6004601c5460a060020a900460ff166004811115611aa057fe5b14611b2a5760008051602061255d8339815191526003600460405180836004811115611ac857fe5b60ff168152602001826004811115611adc57fe5b60ff1681526020019250505060405180910390a1601c805474ff0000000000000000000000000000000000000000191674040000000000000000000000000000000000000000179055426005555b565b60005433600160a060020a03908116911614611b4757600080fd5b60225460ff1615611b5757600080fd5b6022805460ff191660011790556004601c5460a060020a900460ff166004811115611b7e57fe5b14611b8857600080fd5b6005546301e1338001421015611b9d57600080fd5b600160a060020a0381161515611bb257600080fd5b601d54600160a060020a031663a9059cbb82611c328363313ce5676000604051602001526040518163ffffffff1660e060020a028152600401602060405180830381600087803b1515611c0457600080fd5b6102c65a03f11515611c1557600080fd5b50505060405180516304c4b4009150600a0a63ffffffff6124ea16565b60006040516020015260405160e060020a63ffffffff8516028152600160a060020a0390921660048301526024820152604401602060405180830381600087803b1515611c7e57600080fd5b6102c65a03f11515611c8f57600080fd5b50505060405180519050507f39c2ff8a62bebaa5cd4af157ba107e234024dabe84f3e6f2cc416f50b7f380ab8142604051600160a060020a03909216825260208201526040908101905180910390a1506022805460ff19169055565b60005433600160a060020a03908116911614611d0657600080fd5b600160a060020a0381161515611d1b57600080fd5b600160a060020a03166000908152602160205260409020805460ff19166001179055565b60155481565b600080548190819033600160a060020a03908116911614611d6557600080fd5b8391506096821115611d7657600080fd5b5060005b81811015611e135760206000868684818110611d9257fe5b60209081029290920135600160a060020a03168352508101919091526040016000205460ff161515611e0b57600160206000878785818110611dd057fe5b60209081029290920135600160a060020a0316835250810191909152604001600020805460ff1916911515919091179055601f805460010190555b600101611d7a565b7f9075b10cfdcbb4feaac9b18054833db2bdacc10263b692174de5b561d34e2f4f601f5460405190815260200160405180910390a1506001949350505050565b601f5481565b60075481565b60005433600160a060020a03908116911614611e7a57600080fd5b611e82611823565b6004601c5460a060020a900460ff166004811115611e9c57fe5b1415611ea757600080fd5b6011548111611eb557600080fd5b7f47c07aea40f2e4306adb071f865fcd76a81d353c213ea7eef819581989ff9f676012548260405191825260208201526040908101905180910390a1601255565b60195481565b60035481565b6006545b90565b600d5481565b60175481565b60045481565b600a5481565b600e5481565b60225460009060ff1615611f3a57600080fd5b6022805460ff191660011790556004601c5460a060020a900460ff166004811115611f6157fe5b14611f6b57600080fd5b600160a060020a0333166000908152601e602052604081205411611f8e57600080fd5b600160a060020a033316600090815260208052604090205460ff161515611fb457600080fd5b50600160a060020a03338181166000908152601e6020526040808220805490839055601d549094169263a9059cbb929091859190516020015260405160e060020a63ffffffff8516028152600160a060020a0390921660048301526024820152604401602060405180830381600087803b151561203057600080fd5b6102c65a03f1151561204157600080fd5b50505060405180519050507ff33726a859f09868cbfde46ebe9962f051984065979b92e9a7533b202a3c490e3382604051600160a060020a03909216825260208201526040908101905180910390a1506022805460ff19169055565b60115481565b601b81600481106120b057fe5b60209182820401919006915054906101000a900460ff1681565b60005433600160a060020a039081169116146120e557600080fd5b6120ed611823565b6004601c5460a060020a900460ff16600481111561210757fe5b141561211257600080fd5b601c547f86b557e590894ebca3dce4dfc61800ecb963722c9cce83d7d0d1dd32e322420a90600160a060020a031682604051600160a060020a039283168152911660208201526040908101905180910390a1601c805473ffffffffffffffffffffffffffffffffffffffff1916600160a060020a0392909216919091179055565b60005433600160a060020a039081169116146121ae57600080fd5b601d54600160a060020a03166318160ddd6000604051602001526040518163ffffffff1660e060020a028152600401602060405180830381600087803b15156121f657600080fd5b6102c65a03f1151561220757600080fd5b5050506040518051600a5550601d54600160a060020a031663313ce5676000604051602001526040518163ffffffff1660e060020a028152600401602060405180830381600087803b151561225b57600080fd5b6102c65a03f1151561226c57600080fd5b5050506040518051600a0a6298968002600c819055601d54909150600160a060020a031663313ce5676000604051602001526040518163ffffffff1660e060020a028152600401602060405180830381600087803b15156122cc57600080fd5b6102c65a03f115156122dd57600080fd5b5050506040518051600a0a6301312d000291909101600d819055601d54909150600160a060020a031663313ce5676000604051602001526040518163ffffffff1660e060020a028152600401602060405180830381600087803b151561234257600080fd5b6102c65a03f1151561235357600080fd5b50505060405180519050600a0a6301c9c3800201600e81905550612397606461238b6019600254600a0a6124ea90919063ffffffff16565b9063ffffffff6124a616565b6007556002546123b89060649061238b90600a0a603263ffffffff6124ea16565b600855600254600a0a600955611b2a611823565b601c5460a060020a900460ff1681565b60185460ff1681565b6304c4b40081565b60005433600160a060020a0390811691161461240857600080fd5b600160a060020a038116151561241d57600080fd5b600054600160a060020a0380831691167f8be0079c531659141344cd1fd0a4f28419497f9722a3daafe3b4186f6b6457e060405160405180910390a36000805473ffffffffffffffffffffffffffffffffffffffff1916600160a060020a0392909216919091179055565b60025481565b60165460ff1681565b601d54600160a060020a031681565b60008082848115156124b457fe5b0490508091505b5092915050565b6000828201838110156124d157fe5b9392505050565b6000828211156124e457fe5b50900390565b6000808315156124fd57600091506124bb565b5082820282848281151561250d57fe5b04146124d157fe5b8154818355818115116125395760008381526020902061253991810190830161253e565b505050565b611f0691905b808211156125585760008155600101612544565b5090560040bc5f093899d560cbd784d85b697b577e63a2991330daf682bd4d6ade755b03a165627a7a7230582040a1a0f093e5a0c038b2e3c4f88a8eca37c824c20e55bbcb4123a6b07ea5fb5100296060604052341561000f57600080fd5b604051602080610a988339810160405280805160038054600160a060020a03191633600160a060020a039081169190911790915590925082161515905061005557600080fd5b6638d7ea4c680000600181905560048054600160a060020a031916600160a060020a03841617905561009b9066071afd498d00006401000000006100d281026109511704565b600160a060020a033381166000908152602081905260408082209390935560045490911681522066071afd498d00009055506100e4565b6000828211156100de57fe5b50900390565b6109a5806100f36000396000f3006060604052600436106100da5763ffffffff7c010000000000000000000000000000000000000000000000000000000060003504166306fdde0381146100df578063095ea7b31461016957806318160ddd1461019f5780631bfaf155146101c457806323b872dd146101f3578063313ce5671461021b578063661884631461022e57806370a08231146102505780637b86120a1461026f5780638da5cb5b1461028257806395d89b4114610295578063a9059cbb146102a8578063d73dd623146102ca578063dd62ed3e146102ec578063f2fde38b14610311575b600080fd5b34156100ea57600080fd5b6100f2610332565b60405160208082528190810183818151815260200191508051906020019080838360005b8381101561012e578082015183820152602001610116565b50505050905090810190601f16801561015b5780820380516001836020036101000a031916815260200191505b509250505060405180910390f35b341561017457600080fd5b61018b600160a060020a0360043516602435610369565b604051901515815260200160405180910390f35b34156101aa57600080fd5b6101b26103d5565b60405190815260200160405180910390f35b34156101cf57600080fd5b6101d76103db565b604051600160a060020a03909116815260200160405180910390f35b34156101fe57600080fd5b61018b600160a060020a03600435811690602435166044356103ea565b341561022657600080fd5b6101b261056a565b341561023957600080fd5b61018b600160a060020a036004351660243561056f565b341561025b57600080fd5b6101b2600160a060020a0360043516610669565b341561027a57600080fd5b6101b2610684565b341561028d57600080fd5b6101d761068f565b34156102a057600080fd5b6100f261069e565b34156102b357600080fd5b61018b600160a060020a03600435166024356106d5565b34156102d557600080fd5b61018b600160a060020a03600435166024356107e7565b34156102f757600080fd5b6101b2600160a060020a036004358116906024351661088b565b341561031c57600080fd5b610330600160a060020a03600435166108b6565b005b60408051908101604052600881527f57696e644d696e65000000000000000000000000000000000000000000000000602082015281565b600160a060020a03338116600081815260026020908152604080832094871680845294909152808220859055909291907f8c5be1e5ebec7d5bd14f71427d1e84f3dd0314c0f7b2291e5b200ac8c7c3b9259085905190815260200160405180910390a350600192915050565b60015490565b600454600160a060020a031681565b6000600160a060020a038316151561040157600080fd5b600160a060020a03841660009081526020819052604090205482111561042657600080fd5b600160a060020a038085166000908152600260209081526040808320339094168352929052205482111561045957600080fd5b600160a060020a038416600090815260208190526040902054610482908363ffffffff61095116565b600160a060020a0380861660009081526020819052604080822093909355908516815220546104b7908363ffffffff61096316565b600160a060020a03808516600090815260208181526040808320949094558783168252600281528382203390931682529190915220546104fd908363ffffffff61095116565b600160a060020a03808616600081815260026020908152604080832033861684529091529081902093909355908516917fddf252ad1be2c89b69c2b068fc378daa952ba7f163c4a11628f55a4df523b3ef9085905190815260200160405180910390a35060019392505050565b600881565b600160a060020a033381166000908152600260209081526040808320938616835292905290812054808311156105cc57600160a060020a033381166000908152600260209081526040808320938816835292905290812055610603565b6105dc818463ffffffff61095116565b600160a060020a033381166000908152600260209081526040808320938916835292905220555b600160a060020a0333811660008181526002602090815260408083209489168084529490915290819020547f8c5be1e5ebec7d5bd14f71427d1e84f3dd0314c0f7b2291e5b200ac8c7c3b925915190815260200160405180910390a35060019392505050565b600160a060020a031660009081526020819052604090205490565b66071afd498d000081565b600354600160a060020a031681565b60408051908101604052600381527f574d440000000000000000000000000000000000000000000000000000000000602082015281565b6000600160a060020a03831615156106ec57600080fd5b600160a060020a03331660009081526020819052604090205482111561071157600080fd5b600160a060020a03331660009081526020819052604090205461073a908363ffffffff61095116565b600160a060020a03338116600090815260208190526040808220939093559085168152205461076f908363ffffffff61096316565b60008085600160a060020a0316600160a060020a031681526020019081526020016000208190555082600160a060020a031633600160a060020a03167fddf252ad1be2c89b69c2b068fc378daa952ba7f163c4a11628f55a4df523b3ef8460405190815260200160405180910390a350600192915050565b600160a060020a03338116600090815260026020908152604080832093861683529290529081205461081f908363ffffffff61096316565b600160a060020a0333811660008181526002602090815260408083209489168084529490915290819020849055919290917f8c5be1e5ebec7d5bd14f71427d1e84f3dd0314c0f7b2291e5b200ac8c7c3b92591905190815260200160405180910390a350600192915050565b600160a060020a03918216600090815260026020908152604080832093909416825291909152205490565b60035433600160a060020a039081169116146108d157600080fd5b600160a060020a03811615156108e657600080fd5b600354600160a060020a0380831691167f8be0079c531659141344cd1fd0a4f28419497f9722a3daafe3b4186f6b6457e060405160405180910390a36003805473ffffffffffffffffffffffffffffffffffffffff1916600160a060020a0392909216919091179055565b60008282111561095d57fe5b50900390565b60008282018381101561097257fe5b93925050505600a165627a7a723058209ae951a65a429ccb1e39efba99272460bfe85aab0c83e52eb5a516a73fc3151c0029",
  "source": "pragma solidity ^0.4.18;\n\nimport './SafeMath.sol';\nimport './Ownable.sol';\nimport './WindMineToken.sol';\nimport './UsingFiatPrice.sol';\n\n/**\n * @title Crowdsale\n * @dev WindMine token crowdsale. Extends UsingFiatPrice for updating price in fiat currency from external source\n */\ncontract Crowdsale is UsingFiatPrice {\n    using SafeMath for uint256;\n\n    enum State {\n        NOT_STARTED,\n        PRIVATE,\n        PRE_ICO,\n        ICO,\n        FINISHED\n    }\n\n    /**\n     * @title freezePeriod\n     * @dev Freezing period for frozen reserve of 80 mln tokens\n     */\n    uint256 public constant freezePeriod = 1 years;\n\n    /**\n     * @title frozenReserve\n     * @dev Amount of frozen tokens without token decimals\n     */\n    uint256 public constant frozenReserve = 80000000;\n\n    /**\n     * @title reserveFreezeTimestamp\n     * @dev Timestamp of started freezing date\n     */\n    uint256 public reserveFreezeTimestamp;\n\n    /**\n     * @title investorsList\n     * @dev List of investors to get investors statistics\n     */\n    address[] public investorsList;\n\n    /**\n     * @title privatePriceInFiatFracture\n     * @dev Token price in minimal fiat currency fracture for Private Sale stage\n     */\n    uint256 public privatePriceInFiatFracture;\n\n    /**\n     * @title preIcoPriceInFiatFracture\n     * @dev Token price in minimal fiat currency fracture for Pre-ICO stage\n     */\n    uint256 public preIcoPriceInFiatFracture;\n\n    /**\n     * @title icoPriceInFiatFracture\n     * @dev Token price in minimal fiat currency fracture for ICO stage\n     */\n    uint256 public icoPriceInFiatFracture;\n\n    /**\n     * @title generalHardCap\n     * @dev General hard cap, which is defined by token total supply\n     */\n    uint256 public generalHardCap;\n\n    /**\n     * @title currentHardCap\n     * @dev Hard cap for current crowdsale stage\n     */\n    uint256 public currentHardCap;\n\n    /**\n     * @title Hard cap for Private Sale stage\n     * @dev privateSaleHardCap\n     */\n    uint256 public privateSaleHardCap;\n\n    /**\n     * @title preIcoHardCap\n     * @dev Hard cap for Pre-ICO stage, which includes previous stage hard cap\n     * @notice This hard cap includes previous stage hard cap, so it is relative to general amount of tokens\n     */\n    uint256 public preIcoHardCap;\n\n    /**\n     * @title icoHardCap\n     * @dev Hard cap for ICO stage, which includes previous stage hard cap\n     * @notice This hard cap includes previous stage hard cap, so it is relative to general amount of tokens\n     */\n    uint256 public icoHardCap;\n\n    /**\n     * @title privateSaleStartDate\n     * @dev Private Sale stage start date\n     */\n    uint256 public privateSaleStartDate;\n\n    /**\n     * @title preIcoStartDate\n     * @dev Pre-ICO stage start date\n     */\n    uint256 public preIcoStartDate;\n\n    /**\n     * @title icoStartDate\n     * @dev ICO stage start date\n     */\n    uint256 public icoStartDate;\n\n    /**\n     * @title icoFinishDate\n     * @dev ICO stage finish date\n     */\n    uint256 public icoFinishDate;\n\n    /**\n     * @title tokensSold\n     * @dev Number of sold tokens\n     */\n    uint256 public tokensSold;\n\n    /**\n     * @title weiRaised\n     * @dev Amount of raised funds in wei\n     */\n    uint256 public weiRaised;\n\n    /**\n     * @title privateSaleWeiRaised\n     * @dev Amount of raised funds in wei at Private Sale stage\n     */\n    uint256 public privateSaleWeiRaised;\n\n    /**\n     * @title privateSaleFundsWithdrawn\n     * @dev Flags if funds raised at Private Sale has been withdrawn\n     */\n    bool public privateSaleFundsWithdrawn = false;\n\n    /**\n     * @title preIcoWeiRaised\n     * @dev Amount of raised funds in wei at Pre-ICO stage\n     */\n    uint256 public preIcoWeiRaised;\n\n    /**\n     * @title preIcoFundsWithdrawn\n     * @dev Flags if funds raised at Pre-ICO has been withdrawn\n     */\n    bool public preIcoFundsWithdrawn = false;\n\n    /**\n     * @title icoWeiRaised\n     * @dev Amount of raised funds in wei at ICO stage\n     */\n    uint256 public icoWeiRaised;\n\n    /**\n     * @title icoFundsWithdrawn\n     * @dev Flags if funds raised at ICO has been withdrawn\n     */\n    bool public icoFundsWithdrawn = false;\n\n    bool[4] public withdrawnState;\n\n    /**\n     * @title wallet\n     * @dev Beneficiary wallet address\n     */\n    address public wallet;\n\n    /**\n     * @title crowdsaleState\n     * @dev Current crowdsale state\n     * @notice This state is updated in every transaction by calling checkState function\n     */\n    State public crowdsaleState = State.NOT_STARTED;\n\n    /**\n     * @title token\n     * @dev WindMineToken\n     */\n    WindMineToken public token;\n\n    /**\n     * @title tokensOrdered\n     * @dev Mapping of number of tokens ordered during sale stages\n     */\n    mapping (address => uint256) public tokensOrdered;\n\n    /**\n     * @title totalWhiteListed\n     * @dev Total amount of whitelisted addresses\n     */\n    uint256 public totalWhiteListed;\n\n    /**\n     * @title whiteList\n     * @dev A mapping of addresses to flags, which shows whether address has passed KYC or not\n     */\n    mapping(address => bool) public whiteList;\n\n    /**\n     * @dev Mapping of private participants\n     * @notice If bool flag is set to true, then this address is allowed to participate in the Private Sale stage\n     */\n    mapping (address => bool) private privateParticipants;\n\n    /**\n     * @dev We use a single lock for the whole contract.\n     */\n    bool private reentrancy_lock = false;\n\n    /**\n     * @dev Prevents a contract from calling itself, directly or indirectly.\n     */\n    modifier nonReentrant() {\n        require(!reentrancy_lock);\n        reentrancy_lock = true;\n        _;\n        reentrancy_lock = false;\n    }\n\n    /**\n     * @dev This event is raised when tokens were manually send\n     * @param _receiver The receiver of the manually reserved tokens\n     * @param _amount The amount of tokens to be reserved for user\n     * @notice Amount of tokens should be with token decimals\n     * @notice Backend uses manual sending for received bitcoin transactions from registered users\n     */\n    event ManualTokenSend(address _receiver, uint256 _amount);\n\n    /**\n     * @dev This event is raised when crowdsale state changes\n     * @param _oldState Old crowdsale state\n     * @param _newState New crowdsale state\n     */\n    event StateHasChanged(State _oldState, State _newState);\n\n    /**\n     * @dev This event is raised when owner withdraws raised funds\n     * @param _wallet Where withdrawn funds were sent\n     * @param _amount How much wei were sent\n     */\n    event FundsWithdrawn(address _wallet, uint256 _amount, uint256 _stage);\n\n    /**\n     * @dev This event is raised when owner changes beneficiary wallet\n     * @param _oldWallet Old beneficiary wallet\n     * @param _newWallet New beneficiary wallet\n     */\n    event WalletHasChanged(address _oldWallet, address _newWallet);\n\n    /**\n     * @dev This event is raised when owner moves Private Sale start date\n     * @param _oldDate Old start date of Private Sale\n     * @param _newDate New start date of Private Sale\n     */\n    event PrivateSaleStartDateMoved(uint256 _oldDate, uint256 _newDate);\n\n    /**\n     * @dev This event is raised when owner moves Pre-ICO start date\n     * @param _oldDate Old start date of Pre-ICO\n     * @param _newDate New start date of Pre-ICO\n     */\n    event PreIcoStartDateMoved(uint256 _oldDate, uint256 _newDate);\n\n    /**\n     * @dev This event is raised when owner moves ICO start date\n     * @param _oldDate Old start date of ICO\n     * @param _newDate New start date of ICO\n     */\n    event IcoStartDateMoved(uint256 _oldDate, uint256 _newDate);\n\n    /**\n     * @dev This event is raised when owner moves ICO finish date\n     * @param _oldDate Old finish date of ICO\n     * @param _newDate New finish date of ICO\n     */\n    event IcoFinishDateMoved(uint256 _oldDate, uint256 _newDate);\n\n    /**\n     * @dev This event is raised when investor order tokens during any sale period by transferring ETH to this contract\n     * @param _orderer Address of ETH sender\n     * @param _amount How much tokens ordered (with decimals)\n     * @param _currentWeiInFiat Current amount of wei in 0.01 EUR\n     */\n    event TokensAreOrdered(address _orderer, uint256 _amount, uint256 _currentWeiInFiat);\n\n    /**\n     * @dev This event is raised when investor retrieves his ordered tokens after ICO end\n     * @param _retriever Who has retrieved his ordered tokens\n     * @param _amount How much tokens he was sent (with decimals)\n     */\n    event TokensAreRetrieved(address _retriever, uint256 _amount);\n\n    /**\n     * @dev This event is raised when owner retrieves frozen reserve of 80 mln tokens after 12 month\n     * @param _receiver Receiver of frozen token reserve\n     * @param _unfreezeTimestamp Timestamp of retrieval date\n     */\n    event FrozenReserveRetrieved(address _receiver, uint256 _unfreezeTimestamp);\n\n    /**\n     * @dev This event is raised, when address `user` has been whitelisted\n     * @param user Who was whitelisted\n     * @param whiteListedNum How much addresses are currently whitelisted (after adding)\n     */\n    event LogWhiteListed(address user, uint256 whiteListedNum);\n\n    /**\n     * @dev This event is raised, when owner whitelists an array of addresses\n     * @param whiteListedNum How much addresses are currently whitelisted (after adding)\n     */\n    event LogWhiteListedMultiple(uint256 whiteListedNum);\n\n    /**\n     * @dev Crowdsale constructor, which calls parent UsingFiatPrice constructor\n     * @param _privateSaleStartDate Private sale stage start date in Unix timestamp\n     * @param _preIcoStartDate Private sale stage start date in Unix timestamp\n     * @param _icoStartDate Private sale stage start date in Unix timestamp\n     * @param _icoFinishDate Private sale stage finish date in Unix timestamp\n     * @param _wallet Wallet where raised funds will be sent when crowdsale finishes\n     * @param _foundersWallet Founder's wallet address, where to send 20 mln tokens of founder's reserve\n     * @notice Crowdsale constructor calls parent contract UsingFiatPrice constructor, setting fiat symbol to EUR and\n     * fiat decimals to 2\n     */\n    function Crowdsale(uint256 _privateSaleStartDate, uint256 _preIcoStartDate, uint256 _icoStartDate, uint256 _icoFinishDate, address _wallet, address _foundersWallet)\n    UsingFiatPrice(\"EUR\", 2) public {\n        require(_privateSaleStartDate > 0);\n        require(_preIcoStartDate > _privateSaleStartDate);\n        require(_icoStartDate > _preIcoStartDate);\n        require(_wallet != address(0));\n        require(_foundersWallet != address(0));\n\n        privateSaleStartDate = _privateSaleStartDate;\n        preIcoStartDate = _preIcoStartDate;\n        icoStartDate = _icoStartDate;\n        icoFinishDate = _icoFinishDate;\n        wallet = _wallet;\n        token = new WindMineToken(_foundersWallet);\n    }\n\n    /**\n     * @dev Gets number of investors\n     * @return number of investors\n     */\n    function getInvestorsListLength() public view returns (uint256) {\n        return investorsList.length;\n    }\n\n    /**\n     * @dev Users can send ETH directly to the crowdsale to buy tokens\n     */\n    function() public payable {\n        buyTokens(msg.sender);\n    }\n\n    /**\n     * @dev Function for handling received ETH and sending tokens to sender\n     * @param _sender Address of funds sender\n     */\n    function buyTokens(address _sender) public payable nonReentrant {\n        checkState();\n        require(_sender != address(0));\n        require(crowdsaleState != State.NOT_STARTED);\n        require(crowdsaleState != State.FINISHED);\n        require(msg.value >= 1E17); //Minimal purchase is 0.1 ETH\n        require(weiInFiat > 0);\n\n        if (crowdsaleState == State.PRIVATE) {\n            require(privateParticipants[_sender]);\n        }\n        //KYC check\n        require(whiteList[_sender]);\n\n        uint256 receivedWei = msg.value;\n        uint256 fiatAmount = receivedWei.div(weiInFiat);\n        uint256 tokensBought;\n        uint256 stagePriceInFiatFracture;\n        uint256 change;\n        uint256 realReceivedWei;\n\n        if (crowdsaleState == State.PRIVATE) {\n            stagePriceInFiatFracture = privatePriceInFiatFracture;\n        } else if (crowdsaleState == State.PRE_ICO) {\n            stagePriceInFiatFracture = preIcoPriceInFiatFracture;\n        } else if (crowdsaleState == State.ICO) {\n            stagePriceInFiatFracture = icoPriceInFiatFracture;\n        }\n        tokensBought = fiatAmount.div(stagePriceInFiatFracture);\n\n        require(tokensBought > 0);\n\n        if (tokensSold.add(tokensBought) > currentHardCap) {\n            tokensBought = currentHardCap.sub(tokensSold);\n            realReceivedWei = tokensBought.mul(stagePriceInFiatFracture).mul(weiInFiat);\n            change = receivedWei.sub(realReceivedWei);\n        } else {\n            realReceivedWei = receivedWei;\n        }\n\n        tokensSold = tokensSold.add(tokensBought);\n        weiRaised = weiRaised.add(realReceivedWei);\n        if (crowdsaleState == State.PRIVATE) {\n            privateSaleWeiRaised = privateSaleWeiRaised.add(realReceivedWei);\n        } else if (crowdsaleState == State.PRE_ICO) {\n            preIcoWeiRaised = preIcoWeiRaised.add(realReceivedWei);\n        } else if (crowdsaleState == State.ICO) {\n            icoWeiRaised = icoWeiRaised.add(realReceivedWei);\n        }\n\n        if (token.balanceOf(_sender) == 0) {\n            investorsList.push(_sender);\n        }\n\n        if (change > 0) {\n            _sender.transfer(change);\n        }\n\n        tokensBought = tokensBought.mul(10 ** token.decimals());\n        tokensOrdered[_sender] = tokensOrdered[_sender].add(tokensBought);\n\n        TokensAreOrdered(_sender, tokensBought, weiInFiat);\n    }\n\n    /**\n     * @dev Sends tokens, ordered during sale periods, to the caller\n     */\n    function receiveOrderedTokens() public nonReentrant {\n        require(crowdsaleState == State.FINISHED);\n        require(tokensOrdered[msg.sender] > 0);\n        //KYC check\n        require(whiteList[msg.sender]);\n\n        uint256 numOfTokens = tokensOrdered[msg.sender];\n        tokensOrdered[msg.sender] = 0;\n\n        token.transfer(msg.sender, numOfTokens);\n        TokensAreRetrieved(msg.sender, numOfTokens);\n    }\n\n    /**\n     * @dev Checks crowdsale state and updates state field and current stage hard cap\n     */\n    function checkState() public {\n        if (now < privateSaleStartDate) {\n            //Crowdsale is not started yet\n            crowdsaleState = State.NOT_STARTED;\n        } else if (now >= privateSaleStartDate && now < preIcoStartDate) {\n            //Crowdsale is in Private Sale state. Set state to PRIVATE and update hard cap to private sale hard cap\n            if (crowdsaleState != State.PRIVATE) {\n                StateHasChanged(State.NOT_STARTED, State.PRIVATE);\n                crowdsaleState = State.PRIVATE;\n                currentHardCap = privateSaleHardCap;\n            }\n        } else if (now >= preIcoStartDate && now < icoStartDate) {\n            //Crowdsale is in Pre-ICO state. Set state to PRE_ICO and update hard cap to Pre-ICO hard cap\n            if (crowdsaleState != State.PRE_ICO) {\n                StateHasChanged(State.PRIVATE, State.PRE_ICO);\n                crowdsaleState = State.PRE_ICO;\n                currentHardCap = preIcoHardCap;\n            }\n        } else if (now >= icoStartDate && now < icoFinishDate) {\n            //Crowdsale is in ICO state. Set state to ICO and update hard cap to ICO hard cap\n            if (crowdsaleState != State.ICO) {\n                StateHasChanged(State.PRE_ICO, State.ICO);\n                crowdsaleState = State.ICO;\n                currentHardCap = icoHardCap;\n            }\n        } else {\n            //Crowdsale has finished. Set state to FINISHED\n            if (crowdsaleState != State.FINISHED) {\n                StateHasChanged(State.ICO, State.FINISHED);\n                crowdsaleState = State.FINISHED;\n                reserveFreezeTimestamp = now;\n            }\n        }\n    }\n\n    /**\n     * @dev Whitelist address for token purchase\n     * @param _user Address of the investor, who should be whitelisted\n     * @notice After this address is added, it will be able to buy tokens (except for Private Sale)\n     */\n    function addToWhiteList(address _user) external onlyOwner returns (bool) {\n        require(_user != address(0));\n        if (!whiteList[_user]) {\n            whiteList[_user] = true;\n            totalWhiteListed++;\n            LogWhiteListed(_user, totalWhiteListed);\n        }\n        return true;\n    }\n\n    /**\n     * @dev Mark list of addresses as whitelisted\n     * @param _users List of address of the investors, who should be whitelisted\n     * @notice After this investors are added, they will be able to buy tokens\n     * @notice Cycles tend to deplete all available gas, so array length constraint is introduced\n     */\n    function addToWhiteListMultiple(address[] _users) external onlyOwner returns (bool) {\n        uint256 length = _users.length;\n        require(length <= 150);\n        for (uint i = 0; i < length; ++i) {\n            if (!whiteList[_users[i]]) {\n                whiteList[_users[i]] = true;\n                totalWhiteListed++;\n            }\n        }\n        LogWhiteListedMultiple(totalWhiteListed);\n        return true;\n    }\n\n    /**\n     * @dev Sends frozen reserve to receiver if 12 month has passed since freezing\n     * @param _receiver Address of the frozen reserve receiver\n     */\n    function receiveFrozenReserve(address _receiver) public onlyOwner nonReentrant {\n        require(crowdsaleState == State.FINISHED);\n        require(now >= reserveFreezeTimestamp + freezePeriod);\n        require(_receiver != address(0));\n\n        token.transfer(_receiver, frozenReserve.mul(10 ** token.decimals()));\n        FrozenReserveRetrieved(_receiver, now);\n    }\n\n    /**\n     * @dev Prepares crowdsale by setting hard caps for stages using information from token\n     */\n    function prepareCrowdsale() public onlyOwner {\n        generalHardCap = token.totalSupply();\n        privateSaleHardCap = 10000000 * (10 ** token.decimals());\n        preIcoHardCap = 20000000 * (10 ** token.decimals()) + privateSaleHardCap;\n        icoHardCap = 30000000 * (10 ** token.decimals()) + preIcoHardCap;\n        privatePriceInFiatFracture = (10 ** fiatDecimals).mul(25).div(100);\n        preIcoPriceInFiatFracture = (10 ** fiatDecimals).mul(50).div(100);\n        icoPriceInFiatFracture = 10 ** fiatDecimals;\n        checkState();\n    }\n\n    /**\n     * @dev Allows this address to participate in Private Sale stage\n     * @param _participant Wallet address of the private participant\n     */\n    function addPrivateParticipant(address _participant) public onlyOwner {\n        require(_participant != address(0));\n        privateParticipants[_participant] = true;\n    }\n\n    /**\n     * @dev Sets new wallet where raised funds should be sent after the end of crowdsale\n     * @param _newWallet New wallet address\n     * @notice It is possible to change wallet only if crowdsale isn't finished yet\n     */\n    function setWallet(address _newWallet) public onlyOwner {\n        checkState();\n        require(crowdsaleState != State.FINISHED);\n        WalletHasChanged(wallet, _newWallet);\n        wallet = _newWallet;\n    }\n\n    /**\n     * @dev Sets new starting date of the Private Sale\n     * @param _newDate New Private Sale stage starting date in Unix timestamp\n     * @notice It is possible to change starting date only if crowdsale is not started yet\n     * @notice New start date of Private Sale cannot be bigger than Pre-ICO start date\n     */\n    function setPrivateSaleStartDate(uint256 _newDate) public onlyOwner {\n        checkState();\n        require(crowdsaleState == State.NOT_STARTED);\n        require(_newDate < preIcoStartDate); // private sale start date cannot be bigger than pre ico start date\n\n        PrivateSaleStartDateMoved(privateSaleStartDate, _newDate);\n        privateSaleStartDate = _newDate;\n    }\n\n    /**\n     * @dev Sets new starting date of the Pre-ICO\n     * @param _newDate New Pre-ICO stage starting date in Unix timestamp\n     * @notice New start date of Pre-ICO cannot be bigger than ICO start date\n     */\n    function setPreIcoStartDate(uint256 _newDate) public onlyOwner {\n        checkState();\n        require(crowdsaleState == State.NOT_STARTED || crowdsaleState == State.PRIVATE);\n        require(_newDate > privateSaleStartDate);\n        require(_newDate < icoStartDate); // pre ico start date cannot be bigger than ico start date\n\n        PreIcoStartDateMoved(preIcoStartDate, _newDate);\n        preIcoStartDate = _newDate;\n    }\n\n    /**\n     * @dev Sets new starting date of the ICO\n     * @param _newDate New ICO stage starting date in Unix timestamp\n     * @notice New start date of ICO cannot be bigger than ICO finish date\n     */\n    function setIcoStartDate(uint256 _newDate) public onlyOwner {\n        checkState();\n        require(crowdsaleState != State.ICO && crowdsaleState != State.FINISHED);\n        require(_newDate > preIcoStartDate);\n        require(_newDate < icoFinishDate); // pre ico start date cannot be bigger than ico finish date\n\n        IcoStartDateMoved(icoStartDate, _newDate);\n        icoStartDate = _newDate;\n    }\n\n    /**\n     * @dev Sets new ending date of the ICO\n     * @param _newDate New ICO stage starting date in Unix timestamp\n     */\n    function setIcoFinishDate(uint256 _newDate) public onlyOwner {\n        checkState();\n        require(crowdsaleState != State.FINISHED);\n        require(_newDate > icoStartDate);\n\n        IcoFinishDateMoved(icoFinishDate, _newDate);\n        icoFinishDate = _newDate;\n    }\n\n    /**\n     * @dev Manually reserves tokens for receiver\n     * @param _receiver Token receiver wallet address\n     * @param _amount Amount of tokens to send\n     * @notice Intended to be used by backend to manually give tokens to BTC investors\n     */\n    function manualReserve(address _receiver, uint256 _amount) external onlyOwner nonReentrant {\n        checkState();\n        require(_receiver != address(0));\n        require(_amount > 0);\n        require(crowdsaleState != State.NOT_STARTED && crowdsaleState != State.FINISHED);\n        require(tokensSold.add(_amount) < currentHardCap);\n\n        if (crowdsaleState == State.PRIVATE) {\n            require(privateParticipants[_receiver]);\n        }\n\n        //KYC check\n        require(whiteList[_receiver]);\n\n        if (token.balanceOf(_receiver) == 0) {\n            investorsList.push(_receiver);\n        }\n\n        tokensSold = tokensSold.add(_amount);\n        tokensOrdered[_receiver] = tokensOrdered[_receiver].add(_amount);\n\n        TokensAreOrdered(_receiver, _amount, weiInFiat);\n    }\n\n    /**\n     * @dev Sends raised funds to the beneficiary wallet\n     * @notice It is possible to withdraw funds from stage only at the following stage. E.g. funds raised at private sale\n     * can be withdrawn\n     */\n    function withdraw() public onlyOwner nonReentrant {\n        checkState();\n        require(crowdsaleState > State.NOT_STARTED);\n        require(!withdrawnState[uint(crowdsaleState).sub(1)]);\n        // Private Sale funds can be withdrawn only when state is Pre-ICO, ICO or Finished and funds haven't been withdrawn before\n        if (crowdsaleState > State.PRIVATE && !withdrawnState[uint(State.PRIVATE)]) {\n            withdrawnState[uint(State.PRIVATE)] = true;\n            FundsWithdrawn(wallet, privateSaleWeiRaised, uint(State.PRIVATE));\n            wallet.transfer(privateSaleWeiRaised);\n        }\n        // Pre-ICO funds can be withdrawn only when state is ICO or Finished and funds haven't been withdrawn before\n        if (crowdsaleState > State.PRE_ICO && !withdrawnState[uint(State.PRE_ICO)]) {\n            withdrawnState[uint(State.PRE_ICO)] = true;\n            FundsWithdrawn(wallet, preIcoWeiRaised, uint(State.PRE_ICO));\n            wallet.transfer(preIcoWeiRaised);\n        }\n        // ICO funds can be withdrawn only when state is Finished and funds haven't been withdrawn before\n        if (crowdsaleState > State.ICO && !withdrawnState[uint(State.ICO)]) {\n            withdrawnState[uint(State.ICO)] = true;\n            FundsWithdrawn(wallet, icoWeiRaised, uint(State.ICO));\n            wallet.transfer(icoWeiRaised);\n        }\n    }\n}\n",
  "sourcePath": "/home/lev/go/src/WindToken/contracts/Crowdsale.sol",
  "compiler": {
    "name": "solc",
    "version": "0.4.19+commit.c4cbbb05.Emscripten.clang"
  },
  "schemaVersion": "2.0.0",
  "updatedAt": "2018-04-05T04:26:06.674Z"
}