{
  "contractName": "Crowdsale",
  "abi": [
    {
      "constant": true,
      "inputs": [],
      "name": "privateSaleHardCap",
      "outputs": [
        {
          "name": "",
          "type": "uint256"
        }
      ],
      "payable": false,
      "stateMutability": "view",
      "type": "function"
    },
    {
      "constant": true,
      "inputs": [],
      "name": "freezePeriod",
      "outputs": [
        {
          "name": "",
          "type": "uint256"
        }
      ],
      "payable": false,
      "stateMutability": "view",
      "type": "function"
    },
    {
      "constant": false,
      "inputs": [
        {
          "name": "_weiInFiat",
          "type": "uint256"
        }
      ],
      "name": "updateWeiInFiat",
      "outputs": [],
      "payable": false,
      "stateMutability": "nonpayable",
      "type": "function"
    },
    {
      "constant": true,
      "inputs": [],
      "name": "reserveFreezeTimestamp",
      "outputs": [
        {
          "name": "",
          "type": "uint256"
        }
      ],
      "payable": false,
      "stateMutability": "view",
      "type": "function"
    },
    {
      "constant": true,
      "inputs": [],
      "name": "icoDuration",
      "outputs": [
        {
          "name": "",
          "type": "uint256"
        }
      ],
      "payable": false,
      "stateMutability": "view",
      "type": "function"
    },
    {
      "constant": true,
      "inputs": [],
      "name": "fiatSymbol",
      "outputs": [
        {
          "name": "",
          "type": "string"
        }
      ],
      "payable": false,
      "stateMutability": "view",
      "type": "function"
    },
    {
      "constant": true,
      "inputs": [
        {
          "name": "",
          "type": "uint256"
        }
      ],
      "name": "investorsList",
      "outputs": [
        {
          "name": "",
          "type": "address"
        }
      ],
      "payable": false,
      "stateMutability": "view",
      "type": "function"
    },
    {
      "constant": true,
      "inputs": [],
      "name": "weiRaised",
      "outputs": [
        {
          "name": "",
          "type": "uint256"
        }
      ],
      "payable": false,
      "stateMutability": "view",
      "type": "function"
    },
    {
      "constant": true,
      "inputs": [],
      "name": "tokensSold",
      "outputs": [
        {
          "name": "",
          "type": "uint256"
        }
      ],
      "payable": false,
      "stateMutability": "view",
      "type": "function"
    },
    {
      "constant": true,
      "inputs": [],
      "name": "wallet",
      "outputs": [
        {
          "name": "",
          "type": "address"
        }
      ],
      "payable": false,
      "stateMutability": "view",
      "type": "function"
    },
    {
      "constant": true,
      "inputs": [
        {
          "name": "",
          "type": "address"
        }
      ],
      "name": "tokensOrdered",
      "outputs": [
        {
          "name": "",
          "type": "uint256"
        }
      ],
      "payable": false,
      "stateMutability": "view",
      "type": "function"
    },
    {
      "constant": true,
      "inputs": [],
      "name": "preIcoPriceInFiatFracture",
      "outputs": [
        {
          "name": "",
          "type": "uint256"
        }
      ],
      "payable": false,
      "stateMutability": "view",
      "type": "function"
    },
    {
      "constant": true,
      "inputs": [],
      "name": "icoPriceInFiatFracture",
      "outputs": [
        {
          "name": "",
          "type": "uint256"
        }
      ],
      "payable": false,
      "stateMutability": "view",
      "type": "function"
    },
    {
      "constant": true,
      "inputs": [],
      "name": "preIcoStartDate",
      "outputs": [
        {
          "name": "",
          "type": "uint256"
        }
      ],
      "payable": false,
      "stateMutability": "view",
      "type": "function"
    },
    {
      "constant": true,
      "inputs": [],
      "name": "privateSaleDuration",
      "outputs": [
        {
          "name": "",
          "type": "uint256"
        }
      ],
      "payable": false,
      "stateMutability": "view",
      "type": "function"
    },
    {
      "constant": true,
      "inputs": [],
      "name": "privateSaleStartDate",
      "outputs": [
        {
          "name": "",
          "type": "uint256"
        }
      ],
      "payable": false,
      "stateMutability": "view",
      "type": "function"
    },
    {
      "constant": true,
      "inputs": [],
      "name": "currentHardCap",
      "outputs": [
        {
          "name": "",
          "type": "uint256"
        }
      ],
      "payable": false,
      "stateMutability": "view",
      "type": "function"
    },
    {
      "constant": true,
      "inputs": [],
      "name": "owner",
      "outputs": [
        {
          "name": "",
          "type": "address"
        }
      ],
      "payable": false,
      "stateMutability": "view",
      "type": "function"
    },
    {
      "constant": true,
      "inputs": [],
      "name": "privatePriceInFiatFracture",
      "outputs": [
        {
          "name": "",
          "type": "uint256"
        }
      ],
      "payable": false,
      "stateMutability": "view",
      "type": "function"
    },
    {
      "constant": true,
      "inputs": [],
      "name": "weiInFiat",
      "outputs": [
        {
          "name": "",
          "type": "uint256"
        }
      ],
      "payable": false,
      "stateMutability": "view",
      "type": "function"
    },
    {
      "constant": true,
      "inputs": [],
      "name": "preIcoHardCap",
      "outputs": [
        {
          "name": "",
          "type": "uint256"
        }
      ],
      "payable": false,
      "stateMutability": "view",
      "type": "function"
    },
    {
      "constant": true,
      "inputs": [],
      "name": "lastUpdated",
      "outputs": [
        {
          "name": "",
          "type": "uint256"
        }
      ],
      "payable": false,
      "stateMutability": "view",
      "type": "function"
    },
    {
      "constant": true,
      "inputs": [],
      "name": "generalHardCap",
      "outputs": [
        {
          "name": "",
          "type": "uint256"
        }
      ],
      "payable": false,
      "stateMutability": "view",
      "type": "function"
    },
    {
      "constant": true,
      "inputs": [],
      "name": "icoHardCap",
      "outputs": [
        {
          "name": "",
          "type": "uint256"
        }
      ],
      "payable": false,
      "stateMutability": "view",
      "type": "function"
    },
    {
      "constant": true,
      "inputs": [],
      "name": "icoStartDate",
      "outputs": [
        {
          "name": "",
          "type": "uint256"
        }
      ],
      "payable": false,
      "stateMutability": "view",
      "type": "function"
    },
    {
      "constant": true,
      "inputs": [
        {
          "name": "",
          "type": "address"
        }
      ],
      "name": "hasPassedKYC",
      "outputs": [
        {
          "name": "",
          "type": "bool"
        }
      ],
      "payable": false,
      "stateMutability": "view",
      "type": "function"
    },
    {
      "constant": true,
      "inputs": [],
      "name": "crowdsaleState",
      "outputs": [
        {
          "name": "",
          "type": "uint8"
        }
      ],
      "payable": false,
      "stateMutability": "view",
      "type": "function"
    },
    {
      "constant": true,
      "inputs": [],
      "name": "frozenReserve",
      "outputs": [
        {
          "name": "",
          "type": "uint256"
        }
      ],
      "payable": false,
      "stateMutability": "view",
      "type": "function"
    },
    {
      "constant": false,
      "inputs": [
        {
          "name": "newOwner",
          "type": "address"
        }
      ],
      "name": "transferOwnership",
      "outputs": [],
      "payable": false,
      "stateMutability": "nonpayable",
      "type": "function"
    },
    {
      "constant": true,
      "inputs": [],
      "name": "fiatDecimals",
      "outputs": [
        {
          "name": "",
          "type": "uint256"
        }
      ],
      "payable": false,
      "stateMutability": "view",
      "type": "function"
    },
    {
      "constant": true,
      "inputs": [],
      "name": "preIcoDuration",
      "outputs": [
        {
          "name": "",
          "type": "uint256"
        }
      ],
      "payable": false,
      "stateMutability": "view",
      "type": "function"
    },
    {
      "constant": true,
      "inputs": [],
      "name": "token",
      "outputs": [
        {
          "name": "",
          "type": "address"
        }
      ],
      "payable": false,
      "stateMutability": "view",
      "type": "function"
    },
    {
      "inputs": [
        {
          "name": "_privateSaleStartDate",
          "type": "uint256"
        },
        {
          "name": "_privateSaleDuration",
          "type": "uint256"
        },
        {
          "name": "_preIcoDuration",
          "type": "uint256"
        },
        {
          "name": "_icoDuration",
          "type": "uint256"
        },
        {
          "name": "_wallet",
          "type": "address"
        },
        {
          "name": "_foundersWallet",
          "type": "address"
        }
      ],
      "payable": false,
      "stateMutability": "nonpayable",
      "type": "constructor"
    },
    {
      "payable": true,
      "stateMutability": "payable",
      "type": "fallback"
    },
    {
      "anonymous": false,
      "inputs": [
        {
          "indexed": false,
          "name": "_receiver",
          "type": "address"
        },
        {
          "indexed": false,
          "name": "_amount",
          "type": "uint256"
        }
      ],
      "name": "ManualTokenSend",
      "type": "event"
    },
    {
      "anonymous": false,
      "inputs": [
        {
          "indexed": false,
          "name": "_oldState",
          "type": "uint8"
        },
        {
          "indexed": false,
          "name": "_newState",
          "type": "uint8"
        }
      ],
      "name": "StateHasChanged",
      "type": "event"
    },
    {
      "anonymous": false,
      "inputs": [
        {
          "indexed": false,
          "name": "_wallet",
          "type": "address"
        },
        {
          "indexed": false,
          "name": "_amount",
          "type": "uint256"
        }
      ],
      "name": "FundsWithdrawn",
      "type": "event"
    },
    {
      "anonymous": false,
      "inputs": [
        {
          "indexed": false,
          "name": "_oldWallet",
          "type": "address"
        },
        {
          "indexed": false,
          "name": "_newWallet",
          "type": "address"
        }
      ],
      "name": "WalletHasChanged",
      "type": "event"
    },
    {
      "anonymous": false,
      "inputs": [
        {
          "indexed": false,
          "name": "_oldDate",
          "type": "uint256"
        },
        {
          "indexed": false,
          "name": "_newDate",
          "type": "uint256"
        }
      ],
      "name": "StartDateMoved",
      "type": "event"
    },
    {
      "anonymous": false,
      "inputs": [
        {
          "indexed": false,
          "name": "_orderer",
          "type": "address"
        },
        {
          "indexed": false,
          "name": "_amount",
          "type": "uint256"
        },
        {
          "indexed": false,
          "name": "_currentWeiInFiat",
          "type": "uint256"
        }
      ],
      "name": "TokensAreOrdered",
      "type": "event"
    },
    {
      "anonymous": false,
      "inputs": [
        {
          "indexed": false,
          "name": "_retriever",
          "type": "address"
        },
        {
          "indexed": false,
          "name": "_amount",
          "type": "uint256"
        }
      ],
      "name": "TokensAreRetrieved",
      "type": "event"
    },
    {
      "anonymous": false,
      "inputs": [
        {
          "indexed": false,
          "name": "_receiver",
          "type": "address"
        },
        {
          "indexed": false,
          "name": "_unfreezeTimestamp",
          "type": "uint256"
        }
      ],
      "name": "FrozenReserveRetrieved",
      "type": "event"
    },
    {
      "anonymous": false,
      "inputs": [
        {
          "indexed": false,
          "name": "_oldRate",
          "type": "uint256"
        },
        {
          "indexed": false,
          "name": "_newRate",
          "type": "uint256"
        }
      ],
      "name": "RateUpdated",
      "type": "event"
    },
    {
      "anonymous": false,
      "inputs": [
        {
          "indexed": true,
          "name": "previousOwner",
          "type": "address"
        },
        {
          "indexed": true,
          "name": "newOwner",
          "type": "address"
        }
      ],
      "name": "OwnershipTransferred",
      "type": "event"
    },
    {
      "constant": true,
      "inputs": [],
      "name": "getInvestorsListLength",
      "outputs": [
        {
          "name": "",
          "type": "uint256"
        }
      ],
      "payable": false,
      "stateMutability": "view",
      "type": "function"
    },
    {
      "constant": false,
      "inputs": [
        {
          "name": "_sender",
          "type": "address"
        }
      ],
      "name": "buyTokens",
      "outputs": [],
      "payable": true,
      "stateMutability": "payable",
      "type": "function"
    },
    {
      "constant": false,
      "inputs": [],
      "name": "receiveOrderedTokens",
      "outputs": [],
      "payable": false,
      "stateMutability": "nonpayable",
      "type": "function"
    },
    {
      "constant": false,
      "inputs": [],
      "name": "checkState",
      "outputs": [],
      "payable": false,
      "stateMutability": "nonpayable",
      "type": "function"
    },
    {
      "constant": false,
      "inputs": [
        {
          "name": "_investor",
          "type": "address"
        }
      ],
      "name": "approveKYC",
      "outputs": [],
      "payable": false,
      "stateMutability": "nonpayable",
      "type": "function"
    },
    {
      "constant": false,
      "inputs": [
        {
          "name": "_investors",
          "type": "address[]"
        }
      ],
      "name": "approveKYCForList",
      "outputs": [],
      "payable": false,
      "stateMutability": "nonpayable",
      "type": "function"
    },
    {
      "constant": false,
      "inputs": [
        {
          "name": "_investor",
          "type": "address"
        }
      ],
      "name": "disapproveKYC",
      "outputs": [],
      "payable": false,
      "stateMutability": "nonpayable",
      "type": "function"
    },
    {
      "constant": false,
      "inputs": [
        {
          "name": "_investors",
          "type": "address[]"
        }
      ],
      "name": "disapproveKYCForList",
      "outputs": [],
      "payable": false,
      "stateMutability": "nonpayable",
      "type": "function"
    },
    {
      "constant": false,
      "inputs": [
        {
          "name": "_receiver",
          "type": "address"
        }
      ],
      "name": "receiveFrozenReserve",
      "outputs": [],
      "payable": false,
      "stateMutability": "nonpayable",
      "type": "function"
    },
    {
      "constant": false,
      "inputs": [],
      "name": "prepareCrowdsale",
      "outputs": [],
      "payable": false,
      "stateMutability": "nonpayable",
      "type": "function"
    },
    {
      "constant": false,
      "inputs": [
        {
          "name": "_participant",
          "type": "address"
        }
      ],
      "name": "addPrivateParticipant",
      "outputs": [],
      "payable": false,
      "stateMutability": "nonpayable",
      "type": "function"
    },
    {
      "constant": false,
      "inputs": [
        {
          "name": "_newWallet",
          "type": "address"
        }
      ],
      "name": "setWallet",
      "outputs": [],
      "payable": false,
      "stateMutability": "nonpayable",
      "type": "function"
    },
    {
      "constant": false,
      "inputs": [
        {
          "name": "_newDate",
          "type": "uint256"
        }
      ],
      "name": "setNewStartDate",
      "outputs": [],
      "payable": false,
      "stateMutability": "nonpayable",
      "type": "function"
    },
    {
      "constant": false,
      "inputs": [
        {
          "name": "_receiver",
          "type": "address"
        },
        {
          "name": "_amount",
          "type": "uint256"
        }
      ],
      "name": "manualReserve",
      "outputs": [],
      "payable": false,
      "stateMutability": "nonpayable",
      "type": "function"
    },
    {
      "constant": false,
      "inputs": [],
      "name": "withdraw",
      "outputs": [],
      "payable": false,
      "stateMutability": "nonpayable",
      "type": "function"
    }
  ],
  "bytecode": "0x60606040526017805460a060020a60ff0219169055601c805460ff1916905534156200002a57600080fd5b60405160c08062002bb58339810160405280805191906020018051919060200180519190602001805191906020018051919060200180519150604090508051908101604052600381527f4555520000000000000000000000000000000000000000000000000000000000602082015260008054600160a060020a03191633600160a060020a031617905560026001828051620000cb929160200190620001ed565b506002555060008611620000de57600080fd5b60008511620000ec57600080fd5b60008411620000fa57600080fd5b600083116200010857600080fd5b600160a060020a03821615156200011e57600080fd5b600160a060020a03811615156200013457600080fd5b620001508686868664010000000062001dbe620001ca82021704565b60178054600160a060020a031916600160a060020a038416179055806200017662000272565b600160a060020a039091168152602001604051809103906000f08015156200019d57600080fd5b60188054600160a060020a031916600160a060020a039290921691909117905550620002a3945050505050565b600f84905560108390559190920160118190556012839055909101601355601455565b828054600181600116156101000203166002900490600052602060002090601f016020900481019282601f106200023057805160ff191683800117855562000260565b8280016001018555821562000260579182015b828111156200026057825182559160200191906001019062000243565b506200026e92915062000283565b5090565b604051610a98806200211d83390190565b620002a091905b808211156200026e57600081556001016200028a565b90565b611e6a80620002b36000396000f3006060604052600436106102215763ffffffff60e060020a6000350416630912b9b7811461022c5780630a3cb663146102515780630e27324d146102645780631755bf3d146102835780631abff816146102995780631b0dbdaf146102ac57806325787747146102ce57806327631d02146102e15780632ccc87271461036b5780633ccfd60b1461039d5780634042b66f146103b0578063518ab2a8146103c3578063521eb273146103d65780635cac2917146103e957806369d3720c146104085780636ca27edc1461041b5780636cc6971b1461042e578063746273381461044457806379c3199d146104935780637f2f5891146104a6578063843a9799146104b957806386d2fe57146104d85780638c585f5f146104eb5780638da5cb5b146104fe57806396dfcbea1461051157806396f85f1614610524578063980a369114610543578063a96d314114610562578063b24a129014610575578063b2c560d214610588578063b2e709081461059b578063b62a86a8146105ea578063d0b06f5d146105fd578063d122ca4e14610610578063d33e225a14610623578063d3a106e514610636578063d73019e914610649578063deaa59df1461065c578063e084a8191461067b578063e19f6ba21461068e578063e7bb5233146106c1578063ec8ac4d8146106f8578063efe6980a1461070c578063f2fde38b1461071f578063f5890e461461073e578063f5cce40214610751578063fc0c546a14610764575b61022a33610777565b005b341561023757600080fd5b61023f610bfa565b60405190815260200160405180910390f35b341561025c57600080fd5b61023f610c00565b341561026f57600080fd5b61022a600160a060020a0360043516610c08565b341561028e57600080fd5b61022a600435610c5c565b34156102a457600080fd5b61023f610cc9565b34156102b757600080fd5b61022a600160a060020a0360043516602435610ccf565b34156102d957600080fd5b61023f610f83565b34156102ec57600080fd5b6102f4610f89565b60405160208082528190810183818151815260200191508051906020019080838360005b83811015610330578082015183820152602001610318565b50505050905090810190601f16801561035d5780820380516001836020036101000a031916815260200191505b509250505060405180910390f35b341561037657600080fd5b610381600435611027565b604051600160a060020a03909116815260200160405180910390f35b34156103a857600080fd5b61022a61104f565b34156103bb57600080fd5b61023f61114b565b34156103ce57600080fd5b61023f611151565b34156103e157600080fd5b610381611157565b34156103f457600080fd5b61023f600160a060020a0360043516611166565b341561041357600080fd5b61023f611178565b341561042657600080fd5b61023f61117e565b341561043957600080fd5b61022a600435611184565b341561044f57600080fd5b61022a600460248135818101908301358060208181020160405190810160405280939291908181526020018383602002808284375094965061121c95505050505050565b341561049e57600080fd5b61023f611291565b34156104b157600080fd5b61023f611297565b34156104c457600080fd5b61022a600160a060020a036004351661129d565b34156104e357600080fd5b61023f6112ee565b34156104f657600080fd5b61023f6112f4565b341561050957600080fd5b6103816112fa565b341561051c57600080fd5b61022a611309565b341561052f57600080fd5b61022a600160a060020a0360043516611599565b341561054e57600080fd5b61022a600160a060020a036004351661173e565b341561056d57600080fd5b61023f611792565b341561058057600080fd5b61023f611798565b341561059357600080fd5b61023f61179e565b34156105a657600080fd5b61022a60046024813581810190830135806020818102016040519081016040528093929190818152602001838360200280828437509496506117a595505050505050565b34156105f557600080fd5b61023f611815565b341561060857600080fd5b61023f61181b565b341561061b57600080fd5b61023f611821565b341561062e57600080fd5b61023f611827565b341561064157600080fd5b61022a61182d565b341561065457600080fd5b61023f611998565b341561066757600080fd5b61022a600160a060020a036004351661199e565b341561068657600080fd5b61022a611a67565b341561069957600080fd5b6106ad600160a060020a0360043516611c6c565b604051901515815260200160405180910390f35b34156106cc57600080fd5b6106d4611c81565b604051808260048111156106e457fe5b60ff16815260200191505060405180910390f35b61022a600160a060020a0360043516610777565b341561071757600080fd5b61023f611c91565b341561072a57600080fd5b61022a600160a060020a0360043516611c99565b341561074957600080fd5b61023f611d34565b341561075c57600080fd5b61023f611d3a565b341561076f57600080fd5b610381611d40565b601c546000908190819081908190819060ff161561079457600080fd5b601c805460ff191660011790556107a9611309565b600160a060020a03871615156107be57600080fd5b600060175460a060020a900460ff1660048111156107d857fe5b14156107e357600080fd5b600460175460a060020a900460ff1660048111156107fd57fe5b141561080857600080fd5b67016345785d8a000034101561081d57600080fd5b6003546000901161082d57600080fd5b600160175460a060020a900460ff16600481111561084757fe5b141561087457600160a060020a0387166000908152601b602052604090205460ff16151561087457600080fd5b600160a060020a0387166000908152601a602052604090205460ff16151561089b57600080fd5b6003543496506108b290879063ffffffff611d4f16565b9450600160175460a060020a900460ff1660048111156108ce57fe5b14156108de57600754925061092e565b600260175460a060020a900460ff1660048111156108f857fe5b141561090857600854925061092e565b600360175460a060020a900460ff16600481111561092257fe5b141561092e5760095492505b61093e858463ffffffff611d4f16565b93506000841161094d57600080fd5b600b54601554610963908663ffffffff611d6b16565b11156109bd57601554600b5461097e9163ffffffff611d8116565b6003549094506109a490610998868663ffffffff611d9316565b9063ffffffff611d9316565b90506109b6868263ffffffff611d8116565b91506109c0565b50845b6015546109d3908563ffffffff611d6b16565b6015556016546109e9908263ffffffff611d6b16565b601655601854600160a060020a03166370a082318860405160e060020a63ffffffff8416028152600160a060020a039091166004820152602401602060405180830381600087803b1515610a3c57600080fd5b5af11515610a4957600080fd5b505050604051805115159050610a9e576006805460018101610a6b8382611de1565b506000918252602090912001805473ffffffffffffffffffffffffffffffffffffffff1916600160a060020a0389161790555b6000821115610ad857600160a060020a03871682156108fc0283604051600060405180830381858888f193505050501515610ad857600080fd5b601854610b4190600160a060020a031663313ce5676040518163ffffffff1660e060020a028152600401602060405180830381600087803b1515610b1b57600080fd5b5af11515610b2857600080fd5b5050506040518051869150600a0a63ffffffff611d9316565b600160a060020a038816600090815260196020526040902054909450610b6d908563ffffffff611d6b16565b600160a060020a03881660009081526019602052604090819020919091556003547fb794cb9cc471caae752d175fddbc2f267fe684f1a107b2f19f44a95e602648b69189918791518084600160a060020a0316600160a060020a03168152602001838152602001828152602001935050505060405180910390a15050601c805460ff191690555050505050565b600c5481565b6301e1338081565b60005433600160a060020a03908116911614610c2357600080fd5b600160a060020a0381161515610c3857600080fd5b600160a060020a03166000908152601a60205260409020805460ff19166001179055565b60005433600160a060020a03908116911614610c7757600080fd5b60008111610c8457600080fd5b7fb38780ddde1f073d91c150de2696f3f7085883648ba21cc5ef01029cb21d19166003548260405191825260208201526040908101905180910390a160035542600455565b60055481565b60005433600160a060020a03908116911614610cea57600080fd5b601c5460ff1615610cfa57600080fd5b601c805460ff19166001179055610d0f611309565b600160a060020a0382161515610d2457600080fd5b60008111610d3157600080fd5b600060175460a060020a900460ff166004811115610d4b57fe5b14158015610d715750600460175460a060020a900460ff166004811115610d6e57fe5b14155b1515610d7c57600080fd5b600b54601554610d92908363ffffffff611d6b16565b10610d9c57600080fd5b600160175460a060020a900460ff166004811115610db657fe5b1415610de357600160a060020a0382166000908152601b602052604090205460ff161515610de357600080fd5b600160a060020a0382166000908152601a602052604090205460ff161515610e0a57600080fd5b601854600160a060020a03166370a082318360405160e060020a63ffffffff8416028152600160a060020a039091166004820152602401602060405180830381600087803b1515610e5a57600080fd5b5af11515610e6757600080fd5b505050604051805115159050610ebc576006805460018101610e898382611de1565b506000918252602090912001805473ffffffffffffffffffffffffffffffffffffffff1916600160a060020a0384161790555b601554610ecf908263ffffffff611d6b16565b601555600160a060020a038216600090815260196020526040902054610efb908263ffffffff611d6b16565b600160a060020a03831660009081526019602052604090819020919091556003547fb794cb9cc471caae752d175fddbc2f267fe684f1a107b2f19f44a95e602648b69184918491518084600160a060020a0316600160a060020a03168152602001838152602001828152602001935050505060405180910390a15050601c805460ff19169055565b60145481565b60018054600181600116156101000203166002900480601f01602080910402602001604051908101604052809291908181526020018280546001816001161561010002031660029004801561101f5780601f10610ff45761010080835404028352916020019161101f565b820191906000526020600020905b81548152906001019060200180831161100257829003601f168201915b505050505081565b600680548290811061103557fe5b600091825260209091200154600160a060020a0316905081565b60005433600160a060020a0390811691161461106a57600080fd5b601c5460ff161561107a57600080fd5b601c805460ff1916600117905561108f611309565b600460175460a060020a900460ff1660048111156110a957fe5b146110b357600080fd5b6017546016547feaff4b37086828766ad3268786972c0cd24259d4c87a80f9d3963a3c3d999b0d91600160a060020a031690604051600160a060020a03909216825260208201526040908101905180910390a1601754601654600160a060020a039091169080156108fc0290604051600060405180830381858888f19350505050151561113f57600080fd5b601c805460ff19169055565b60165481565b60155481565b601754600160a060020a031681565b60196020526000908152604090205481565b60085481565b60095481565b60005433600160a060020a0390811691161461119f57600080fd5b6111a7611309565b600060175460a060020a900460ff1660048111156111c157fe5b146111cb57600080fd5b7fe09757cc3527ef49d9b9c260c7a2648be7b6e534c4b23d828986caddf8dc853e600f548260405191825260208201526040908101905180910390a161121981601054601254601454611dbe565b50565b60008054819033600160a060020a0390811691161461123a57600080fd5b8251915060008211801561124f575060968211155b151561125a57600080fd5b5060005b8181101561128c5761128483828151811061127557fe5b9060200190602002015161129d565b60010161125e565b505050565b60115481565b60105481565b60005433600160a060020a039081169116146112b857600080fd5b600160a060020a03811615156112cd57600080fd5b600160a060020a03166000908152601a60205260409020805460ff19169055565b600f5481565b600b5481565b600054600160a060020a031681565b600f54421015611336576017805474ff000000000000000000000000000000000000000019169055611597565b600f544210158015611349575060115442105b156113c857600080516020611e1f833981519152600060016040518083600481111561137157fe5b60ff16815260200182600481111561138557fe5b60ff1681526020019250505060405180910390a16017805474ff0000000000000000000000000000000000000000191660a060020a179055600c54600b55611597565b60115442101580156113db575060135442105b1561146b57600080516020611e1f833981519152600160026040518083600481111561140357fe5b60ff16815260200182600481111561141757fe5b60ff1681526020019250505060405180910390a16017805474ff0000000000000000000000000000000000000000191674020000000000000000000000000000000000000000179055600d54600b55611597565b601354421015801561148257506014546013540142105b1561151257600080516020611e1f83398151915260026003604051808360048111156114aa57fe5b60ff1681526020018260048111156114be57fe5b60ff1681526020019250505060405180910390a16017805474ff0000000000000000000000000000000000000000191674030000000000000000000000000000000000000000179055600e54600b55611597565b600080516020611e1f833981519152600360046040518083600481111561153557fe5b60ff16815260200182600481111561154957fe5b60ff1681526020019250505060405180910390a16017805474ff0000000000000000000000000000000000000000191674040000000000000000000000000000000000000000179055426005555b565b60005433600160a060020a039081169116146115b457600080fd5b601c5460ff16156115c457600080fd5b601c805460ff19166001179055600460175460a060020a900460ff1660048111156115eb57fe5b146115f557600080fd5b6005546301e133800142101561160a57600080fd5b600160a060020a038116151561161f57600080fd5b601854600160a060020a031663a9059cbb826116928363313ce5676040518163ffffffff1660e060020a028152600401602060405180830381600087803b151561166857600080fd5b5af1151561167557600080fd5b50505060405180516304c4b4009150600a0a63ffffffff611d9316565b60405160e060020a63ffffffff8516028152600160a060020a0390921660048301526024820152604401602060405180830381600087803b15156116d557600080fd5b5af115156116e257600080fd5b50505060405180519050507f39c2ff8a62bebaa5cd4af157ba107e234024dabe84f3e6f2cc416f50b7f380ab8142604051600160a060020a03909216825260208201526040908101905180910390a150601c805460ff19169055565b60005433600160a060020a0390811691161461175957600080fd5b600160a060020a038116151561176e57600080fd5b600160a060020a03166000908152601b60205260409020805460ff19166001179055565b60075481565b60035481565b6006545b90565b60008054819033600160a060020a039081169116146117c357600080fd5b825191506000821180156117d8575060968211155b15156117e357600080fd5b5060005b8181101561128c5761180d8382815181106117fe57fe5b90602001906020020151610c08565b6001016117e7565b600d5481565b60045481565b600a5481565b600e5481565b601c5460009060ff161561184057600080fd5b601c805460ff19166001179055600460175460a060020a900460ff16600481111561186757fe5b1461187157600080fd5b600160a060020a0333166000908152601960205260408120541161189457600080fd5b600160a060020a0333166000908152601a602052604090205460ff1615156118bb57600080fd5b50600160a060020a033381811660009081526019602052604080822080549290556018549193919091169163a9059cbb9184905160e060020a63ffffffff8516028152600160a060020a0390921660048301526024820152604401602060405180830381600087803b151561192f57600080fd5b5af1151561193c57600080fd5b50505060405180519050507ff33726a859f09868cbfde46ebe9962f051984065979b92e9a7533b202a3c490e3382604051600160a060020a03909216825260208201526040908101905180910390a150601c805460ff19169055565b60135481565b60005433600160a060020a039081169116146119b957600080fd5b6119c1611309565b600460175460a060020a900460ff1660048111156119db57fe5b14156119e657600080fd5b6017547f86b557e590894ebca3dce4dfc61800ecb963722c9cce83d7d0d1dd32e322420a90600160a060020a031682604051600160a060020a039283168152911660208201526040908101905180910390a16017805473ffffffffffffffffffffffffffffffffffffffff1916600160a060020a0392909216919091179055565b60005433600160a060020a03908116911614611a8257600080fd5b601854600160a060020a03166318160ddd6040518163ffffffff1660e060020a028152600401602060405180830381600087803b1515611ac157600080fd5b5af11515611ace57600080fd5b5050506040518051600a5550601854600160a060020a031663313ce5676040518163ffffffff1660e060020a028152600401602060405180830381600087803b1515611b1957600080fd5b5af11515611b2657600080fd5b5050506040518051600a0a6298968002600c819055601854909150600160a060020a031663313ce5676040518163ffffffff1660e060020a028152600401602060405180830381600087803b1515611b7d57600080fd5b5af11515611b8a57600080fd5b5050506040518051600a0a6301312d000291909101600d819055601854909150600160a060020a031663313ce5676040518163ffffffff1660e060020a028152600401602060405180830381600087803b1515611be657600080fd5b5af11515611bf357600080fd5b50505060405180519050600a0a6301c9c3800201600e81905550611c376064611c2b6019600254600a0a611d9390919063ffffffff16565b9063ffffffff611d4f16565b600755600254611c5890606490611c2b90600a0a603263ffffffff611d9316565b600855600254600a0a600955611597611309565b601a6020526000908152604090205460ff1681565b60175460a060020a900460ff1681565b6304c4b40081565b60005433600160a060020a03908116911614611cb457600080fd5b600160a060020a0381161515611cc957600080fd5b600054600160a060020a0380831691167f8be0079c531659141344cd1fd0a4f28419497f9722a3daafe3b4186f6b6457e060405160405180910390a36000805473ffffffffffffffffffffffffffffffffffffffff1916600160a060020a0392909216919091179055565b60025481565b60125481565b601854600160a060020a031681565b6000808284811515611d5d57fe5b0490508091505b5092915050565b600082820183811015611d7a57fe5b9392505050565b600082821115611d8d57fe5b50900390565b600080831515611da65760009150611d64565b50828202828482811515611db657fe5b0414611d7a57fe5b600f84905560108390559190920160118190556012839055909101601355601455565b81548183558181151161128c5760008381526020902061128c9181019083016117a291905b80821115611e1a5760008155600101611e06565b5090560040bc5f093899d560cbd784d85b697b577e63a2991330daf682bd4d6ade755b03a165627a7a7230582067873f71f62e796915f4f17126eb8ccbf65896ad53dd09b0901d73e1dea1ccca00296060604052341561000f57600080fd5b604051602080610a988339810160405280805160038054600160a060020a03191633600160a060020a039081169190911790915590925082161515905061005557600080fd5b6638d7ea4c680000600181905560048054600160a060020a031916600160a060020a03841617905561009b9066071afd498d00006401000000006100d281026109511704565b600160a060020a033381166000908152602081905260408082209390935560045490911681522066071afd498d00009055506100e4565b6000828211156100de57fe5b50900390565b6109a5806100f36000396000f3006060604052600436106100da5763ffffffff7c010000000000000000000000000000000000000000000000000000000060003504166306fdde0381146100df578063095ea7b31461016957806318160ddd1461019f5780631bfaf155146101c457806323b872dd146101f3578063313ce5671461021b578063661884631461022e57806370a08231146102505780637b86120a1461026f5780638da5cb5b1461028257806395d89b4114610295578063a9059cbb146102a8578063d73dd623146102ca578063dd62ed3e146102ec578063f2fde38b14610311575b600080fd5b34156100ea57600080fd5b6100f2610332565b60405160208082528190810183818151815260200191508051906020019080838360005b8381101561012e578082015183820152602001610116565b50505050905090810190601f16801561015b5780820380516001836020036101000a031916815260200191505b509250505060405180910390f35b341561017457600080fd5b61018b600160a060020a0360043516602435610369565b604051901515815260200160405180910390f35b34156101aa57600080fd5b6101b26103d5565b60405190815260200160405180910390f35b34156101cf57600080fd5b6101d76103db565b604051600160a060020a03909116815260200160405180910390f35b34156101fe57600080fd5b61018b600160a060020a03600435811690602435166044356103ea565b341561022657600080fd5b6101b261056a565b341561023957600080fd5b61018b600160a060020a036004351660243561056f565b341561025b57600080fd5b6101b2600160a060020a0360043516610669565b341561027a57600080fd5b6101b2610684565b341561028d57600080fd5b6101d761068f565b34156102a057600080fd5b6100f261069e565b34156102b357600080fd5b61018b600160a060020a03600435166024356106d5565b34156102d557600080fd5b61018b600160a060020a03600435166024356107e7565b34156102f757600080fd5b6101b2600160a060020a036004358116906024351661088b565b341561031c57600080fd5b610330600160a060020a03600435166108b6565b005b60408051908101604052600881527f57696e644d696e65000000000000000000000000000000000000000000000000602082015281565b600160a060020a03338116600081815260026020908152604080832094871680845294909152808220859055909291907f8c5be1e5ebec7d5bd14f71427d1e84f3dd0314c0f7b2291e5b200ac8c7c3b9259085905190815260200160405180910390a350600192915050565b60015490565b600454600160a060020a031681565b6000600160a060020a038316151561040157600080fd5b600160a060020a03841660009081526020819052604090205482111561042657600080fd5b600160a060020a038085166000908152600260209081526040808320339094168352929052205482111561045957600080fd5b600160a060020a038416600090815260208190526040902054610482908363ffffffff61095116565b600160a060020a0380861660009081526020819052604080822093909355908516815220546104b7908363ffffffff61096316565b600160a060020a03808516600090815260208181526040808320949094558783168252600281528382203390931682529190915220546104fd908363ffffffff61095116565b600160a060020a03808616600081815260026020908152604080832033861684529091529081902093909355908516917fddf252ad1be2c89b69c2b068fc378daa952ba7f163c4a11628f55a4df523b3ef9085905190815260200160405180910390a35060019392505050565b600881565b600160a060020a033381166000908152600260209081526040808320938616835292905290812054808311156105cc57600160a060020a033381166000908152600260209081526040808320938816835292905290812055610603565b6105dc818463ffffffff61095116565b600160a060020a033381166000908152600260209081526040808320938916835292905220555b600160a060020a0333811660008181526002602090815260408083209489168084529490915290819020547f8c5be1e5ebec7d5bd14f71427d1e84f3dd0314c0f7b2291e5b200ac8c7c3b925915190815260200160405180910390a35060019392505050565b600160a060020a031660009081526020819052604090205490565b66071afd498d000081565b600354600160a060020a031681565b60408051908101604052600381527f574d440000000000000000000000000000000000000000000000000000000000602082015281565b6000600160a060020a03831615156106ec57600080fd5b600160a060020a03331660009081526020819052604090205482111561071157600080fd5b600160a060020a03331660009081526020819052604090205461073a908363ffffffff61095116565b600160a060020a03338116600090815260208190526040808220939093559085168152205461076f908363ffffffff61096316565b60008085600160a060020a0316600160a060020a031681526020019081526020016000208190555082600160a060020a031633600160a060020a03167fddf252ad1be2c89b69c2b068fc378daa952ba7f163c4a11628f55a4df523b3ef8460405190815260200160405180910390a350600192915050565b600160a060020a03338116600090815260026020908152604080832093861683529290529081205461081f908363ffffffff61096316565b600160a060020a0333811660008181526002602090815260408083209489168084529490915290819020849055919290917f8c5be1e5ebec7d5bd14f71427d1e84f3dd0314c0f7b2291e5b200ac8c7c3b92591905190815260200160405180910390a350600192915050565b600160a060020a03918216600090815260026020908152604080832093909416825291909152205490565b60035433600160a060020a039081169116146108d157600080fd5b600160a060020a03811615156108e657600080fd5b600354600160a060020a0380831691167f8be0079c531659141344cd1fd0a4f28419497f9722a3daafe3b4186f6b6457e060405160405180910390a36003805473ffffffffffffffffffffffffffffffffffffffff1916600160a060020a0392909216919091179055565b60008282111561095d57fe5b50900390565b60008282018381101561097257fe5b93925050505600a165627a7a723058203155e8860d81d953a6e2cc213f3ce7375e64d1868f50c5f09a81e67956a179640029",
  "source": "pragma solidity ^0.4.18;\n\nimport './SafeMath.sol';\nimport './Ownable.sol';\nimport './WindMineToken.sol';\nimport './UsingFiatPrice.sol';\n\n/**\n * @title Crowdsale\n * @dev WindMine token crowdsale. Extends UsingFiatPrice for updating price in fiat currency from external source\n */\ncontract Crowdsale is UsingFiatPrice {\n    using SafeMath for uint256;\n\n    enum State {\n        NOT_STARTED,\n        PRIVATE,\n        PRE_ICO,\n        ICO,\n        FINISHED\n    }\n\n    /**\n     * @dev Freezing period for frozen reserve of 80 mln tokens\n     */\n    uint256 public constant freezePeriod = 1 years;\n\n    /**\n     * @dev Amount of frozen tokens without token decimals\n     */\n    uint256 public constant frozenReserve = 80000000;\n\n    /**\n     * @dev Timestamp of started freezing date\n     */\n    uint256 public reserveFreezeTimestamp;\n\n    /**\n     * @title investorsList\n     * @dev List of investors to get investors statistics\n     */\n    address[] public investorsList;\n\n    /**\n     * @title privatePriceInFiatFracture\n     * @dev Token price in minimal fiat currency fracture for Private Sale stage\n     */\n    uint256 public privatePriceInFiatFracture;\n\n    /**\n     * @title preIcoPriceInFiatFracture\n     * @dev Token price in minimal fiat currency fracture for Pre-ICO stage\n     */\n    uint256 public preIcoPriceInFiatFracture;\n\n    /**\n     * @title icoPriceInFiatFracture\n     * @dev Token price in minimal fiat currency fracture for ICO stage\n     */\n    uint256 public icoPriceInFiatFracture;\n\n    /**\n     * @title generalHardCap\n     * @dev General hard cap, which is defined by token total supply\n     */\n    uint256 public generalHardCap;\n\n    /**\n     * @title currentHardCap\n     * @dev Hard cap for current crowdsale stage\n     */\n    uint256 public currentHardCap;\n\n    /**\n     * @dev privateSaleHardCap\n     * @title Hard cap for Private Sale stage\n     */\n    uint256 public privateSaleHardCap;\n\n    /**\n     * @title preIcoHardCap\n     * @dev Hard cap for Pre-ICO stage, which includes previous stage hard cap\n     * @notice This hard cap includes previous stage hard cap, so it is relative to general amount of tokens\n     */\n    uint256 public preIcoHardCap;\n\n    /**\n     * @title icoHardCap\n     * @dev Hard cap for ICO stage, which includes previous stage hard cap\n     * @notice This hard cap includes previous stage hard cap, so it is relative to general amount of tokens\n     */\n    uint256 public icoHardCap;\n\n    /**\n     * @title privateSaleStartDate\n     * @dev Private Sale stage start date\n     */\n    uint256 public privateSaleStartDate;\n\n    /**\n     * @title privateSaleDuration\n     * @dev Duration of the Private Sale stage\n     */\n    uint256 public privateSaleDuration;\n\n    /**\n     * @title preIcoStartDate\n     * @dev Pre-ICO stage start date\n     * @notice It is calculated by summing Private Sale stage start time and Private Sale stage duration\n     */\n    uint256 public preIcoStartDate;\n\n    /**\n     * @title preIcoDuration\n     * @dev Duration of the Pre-ICO stage\n     */\n    uint256 public preIcoDuration;\n\n    /**\n     * @title icoStartDate\n     * @dev ICO stage start date\n     * @notice It is calculated by summing Pre-ICO stage start time and Pre-ICO stage duration\n     */\n    uint256 public icoStartDate;\n\n    /**\n     * @title icoDuration\n     * @dev Duration of the ICO stage\n     */\n    uint256 public icoDuration;\n\n    /**\n     * @title tokensSold\n     * @dev Number of sold tokens\n     */\n    uint256 public tokensSold;\n\n    /**\n     * @title weiRaised\n     * @dev Amount of raised funds in wei\n     */\n    uint256 public weiRaised;\n\n    /**\n     * @title wallet\n     * @dev Beneficiary wallet address\n     */\n    address public wallet;\n\n    /**\n     * @title crowdsaleState\n     * @dev Current crowdsale state\n     * @notice This state is updated in every transaction by calling checkState function\n     */\n    State public crowdsaleState = State.NOT_STARTED;\n\n    /**\n     * @title token\n     * @dev WindMineToken\n     */\n    WindMineToken public token;\n\n    /**\n     * @dev Mapping of number of tokens ordered during sale stages\n     */\n    mapping (address => uint256) public tokensOrdered;\n\n    mapping (address => bool) public hasPassedKYC;\n\n    /**\n     * @dev Mapping of private participants\n     * @notice If bool flag is set to true, then this address is allowed to participate in the Private Sale stage\n     */\n    mapping (address => bool) private privateParticipants;\n\n    /**\n     * @dev We use a single lock for the whole contract.\n     */\n    bool private reentrancy_lock = false;\n\n    /**\n     * @dev Prevents a contract from calling itself, directly or indirectly.\n     */\n    modifier nonReentrant() {\n        require(!reentrancy_lock);\n        reentrancy_lock = true;\n        _;\n        reentrancy_lock = false;\n    }\n\n    /**\n     * @dev This event is raised when tokens were manually send\n     * @notice Backend uses manual sending for received bitcoin transactions from registered users\n     */\n    event ManualTokenSend(address _receiver, uint256 _amount);\n\n    /**\n     * @dev This event is raised when crowdsale state changes\n     */\n    event StateHasChanged(State _oldState, State _newState);\n\n    /**\n     * @dev This event is raised when owner withdraws raised funds\n     */\n    event FundsWithdrawn(address _wallet, uint256 _amount);\n\n    /**\n     * @dev This event is raised when owner changes beneficiary wallet\n     */\n    event WalletHasChanged(address _oldWallet, address _newWallet);\n\n    /**\n     * @dev This event is raised when owner moves private sale start date (and all other start dates with it)\n     */\n    event StartDateMoved(uint256 _oldDate, uint256 _newDate);\n\n    /**\n     * @dev This event is raised when investor order tokens during any sale period by transferring ETH to this contract\n     */\n    event TokensAreOrdered(address _orderer, uint256 _amount, uint256 _currentWeiInFiat);\n\n    /**\n     * @dev This event is raised when investor retrieves his ordered tokens after ICO end\n     */\n    event TokensAreRetrieved(address _retriever, uint256 _amount);\n\n    /**\n     * @dev This event is raised when owner retrieves frozen reserve of 80 mln tokens after 12 month\n     */\n    event FrozenReserveRetrieved(address _receiver, uint256 _unfreezeTimestamp);\n\n    /**\n     * @dev Crowdsale constructor, which calls parent UsingFiatPrice constructor\n     * @param _privateSaleStartDate Private sale stage start date in Unix timestamp\n     * @param _privateSaleDuration Private sale stage duration in Unix timestamp\n     * @param _preIcoDuration Pre-ICO stage duration in Unix timestamp\n     * @param _icoDuration ICO stage duration in Unix timestamp\n     * @param _wallet Wallet where raised funds will be sent when crowdsale finishes\n     * @param _foundersWallet Founder's wallet address, where to send 20 mln tokens of founder's reserve\n     * @notice Crowdsale constructor calls parent contract UsingFiatPrice constructor, setting fiat symbol to EUR and\n     * fiat decimals to 2\n     */\n    function Crowdsale(uint256 _privateSaleStartDate, uint256 _privateSaleDuration, uint256 _preIcoDuration, uint256 _icoDuration, address _wallet, address _foundersWallet)\n    UsingFiatPrice(\"EUR\", 2) public {\n        require(_privateSaleStartDate > 0);\n        require(_privateSaleDuration > 0);\n        require(_preIcoDuration > 0);\n        require(_icoDuration > 0);\n        require(_wallet != address(0));\n        require(_foundersWallet != address(0));\n\n        setDates(_privateSaleStartDate, _privateSaleDuration, _preIcoDuration, _icoDuration);\n        wallet = _wallet;\n        token = new WindMineToken(_foundersWallet);\n    }\n\n    function getInvestorsListLength() public view returns (uint256) {\n        return investorsList.length;\n    }\n\n    /**\n     * @dev Users can send ETH directly to the crowdsale to buy tokens\n     */\n    function() public payable {\n        buyTokens(msg.sender);\n    }\n\n    /**\n     * @dev Function for handling received ETH and sending tokens to sender\n     * @param _sender Address of funds sender\n     */\n    function buyTokens(address _sender) public payable nonReentrant {\n        checkState();\n        require(_sender != address(0));\n        require(crowdsaleState != State.NOT_STARTED);\n        require(crowdsaleState != State.FINISHED);\n        require(msg.value >= 1E17); //Minimal purchase is 0.1 ETH\n        require(weiInFiat > 0);\n\n        if (crowdsaleState == State.PRIVATE) {\n            require(privateParticipants[_sender]);\n        }\n        //KYC check\n        require(hasPassedKYC[_sender]);\n\n        uint256 receivedWei = msg.value;\n        uint256 fiatAmount = receivedWei.div(weiInFiat);\n        uint256 tokensBought;\n        uint256 stagePriceInFiatFracture;\n        uint256 change;\n        uint256 realReceivedWei;\n\n        if (crowdsaleState == State.PRIVATE) {\n            stagePriceInFiatFracture = privatePriceInFiatFracture;\n        } else if (crowdsaleState == State.PRE_ICO) {\n            stagePriceInFiatFracture = preIcoPriceInFiatFracture;\n        } else if (crowdsaleState == State.ICO) {\n            stagePriceInFiatFracture = icoPriceInFiatFracture;\n        }\n        tokensBought = fiatAmount.div(stagePriceInFiatFracture);\n\n        require(tokensBought > 0);\n\n        if (tokensSold.add(tokensBought) > currentHardCap) {\n            tokensBought = currentHardCap.sub(tokensSold);\n            realReceivedWei = tokensBought.mul(stagePriceInFiatFracture).mul(weiInFiat);\n            change = receivedWei.sub(realReceivedWei);\n        } else {\n            realReceivedWei = receivedWei;\n        }\n\n        tokensSold = tokensSold.add(tokensBought);\n        weiRaised = weiRaised.add(realReceivedWei);\n\n        if (token.balanceOf(_sender) == 0) {\n            investorsList.push(_sender);\n        }\n\n        if (change > 0) {\n            _sender.transfer(change);\n        }\n\n        tokensBought = tokensBought.mul(10 ** token.decimals());\n        tokensOrdered[_sender] = tokensOrdered[_sender].add(tokensBought);\n\n        TokensAreOrdered(_sender, tokensBought, weiInFiat);\n    }\n\n    /**\n     * @dev Sends tokens, ordered during sale periods, to the caller\n     */\n    function receiveOrderedTokens() public nonReentrant {\n        require(crowdsaleState == State.FINISHED);\n        require(tokensOrdered[msg.sender] > 0);\n        //KYC check\n        require(hasPassedKYC[msg.sender]);\n\n        uint256 numOfTokens = tokensOrdered[msg.sender];\n        tokensOrdered[msg.sender] = 0;\n\n        token.transfer(msg.sender, numOfTokens);\n        TokensAreRetrieved(msg.sender, numOfTokens);\n    }\n\n    /**\n     * @dev Checks crowdsale state and updates state field and current stage hard cap\n     */\n    function checkState() public {\n        if (now < privateSaleStartDate) {\n            //Crowdsale is not started yet\n            crowdsaleState = State.NOT_STARTED;\n        } else if (now >= privateSaleStartDate && now < preIcoStartDate) {\n            //Crowdsale is in Private Sale state. Set state to PRIVATE and update hard cap to private sale hard cap\n            StateHasChanged(State.NOT_STARTED, State.PRIVATE);\n            crowdsaleState = State.PRIVATE;\n            currentHardCap = privateSaleHardCap;\n        } else if (now >= preIcoStartDate && now < icoStartDate) {\n            //Crowdsale is in Pre-ICO state. Set state to PRE_ICO and update hard cap to Pre-ICO hard cap\n            StateHasChanged(State.PRIVATE, State.PRE_ICO);\n            crowdsaleState = State.PRE_ICO;\n            currentHardCap = preIcoHardCap;\n        } else if (now >= icoStartDate && now < icoStartDate + icoDuration) {\n            //Crowdsale is in ICO state. Set state to ICO and update hard cap to ICO hard cap\n            StateHasChanged(State.PRE_ICO, State.ICO);\n            crowdsaleState = State.ICO;\n            currentHardCap = icoHardCap;\n        } else {\n            //Crowdsale has finished. Set state to FINISHED\n            StateHasChanged(State.ICO, State.FINISHED);\n            crowdsaleState = State.FINISHED;\n            reserveFreezeTimestamp = now;\n        }\n    }\n\n    /**\n     * @dev Mark address as KYC verified\n     * @param _investor Address of the investor, who passed KYC\n     * @notice After approval this investor will be able to buy tokens\n     */\n    function approveKYC(address _investor) public onlyOwner {\n        require(_investor != address(0));\n        hasPassedKYC[_investor] = true;\n    }\n\n    /**\n     * @dev Mark list of addresses as KYC verified\n     * @param _investors List of address of the investors, who has passed KYC\n     * @notice After approval this investors will be able to buy tokens\n     * @notice Cycles tend to deplete all available gas, so array length bound is introduced\n     */\n    function approveKYCForList(address[] _investors) public onlyOwner {\n        uint256 length = _investors.length;\n        require(length > 0 && length <= 150); //TODO experiment with higher bound\n\n        for (uint i = 0; i < length; i++) {\n            approveKYC(_investors[i]);\n        }\n    }\n\n    /**\n     * @dev Mark address as KYC non-verified\n     * @param _investor Address of the investor, who has failed KYC\n     * @notice After disapproval this investor will not be able to buy tokens\n     */\n    function disapproveKYC(address _investor) public onlyOwner {\n        require(_investor != address(0));\n        hasPassedKYC[_investor] = false;\n    }\n\n    /**\n     * @dev Mark list of addresses as KYC non-verified\n     * @param _investors List of address of the investors, who has failed KYC\n     * @notice After disapproval this investor will not be able to buy tokens\n     * @notice Cycles tend to deplete all available gas, so array length bound is introduced\n     */\n    function disapproveKYCForList(address[] _investors) public onlyOwner {\n        uint256 length = _investors.length;\n        require(length > 0 && length <= 150); //TODO experiment with higher bound\n\n        for (uint i = 0; i < length; i++) {\n            disapproveKYC(_investors[i]);\n        }\n    }\n\n    /**\n     * @dev Sends frozen reserve to receiver if 12 month has passed since freezing\n     * @param _receiver Address of the frozen reserve receiver\n     */\n    function receiveFrozenReserve(address _receiver) public onlyOwner nonReentrant {\n        require(crowdsaleState == State.FINISHED);\n        require(now >= reserveFreezeTimestamp + freezePeriod);\n        require(_receiver != address(0));\n\n        token.transfer(_receiver, frozenReserve.mul(10 ** token.decimals()));\n        FrozenReserveRetrieved(_receiver, now);\n    }\n\n    /**\n     * @dev Prepares crowdsale by setting hard caps for stages using information from token\n     */\n    function prepareCrowdsale() public onlyOwner {\n        generalHardCap = token.totalSupply();\n        privateSaleHardCap = 10000000 * (10 ** token.decimals());\n        preIcoHardCap = 20000000 * (10 ** token.decimals()) + privateSaleHardCap;\n        icoHardCap = 30000000 * (10 ** token.decimals()) + preIcoHardCap;\n        privatePriceInFiatFracture = (10 ** fiatDecimals).mul(25).div(100);\n        preIcoPriceInFiatFracture = (10 ** fiatDecimals).mul(50).div(100);\n        icoPriceInFiatFracture = 10 ** fiatDecimals;\n        checkState();\n    }\n\n    /**\n     * @dev Allows this address to participate in Private Sale stage\n     * @param _participant Wallet address of the private participant\n     */\n    function addPrivateParticipant(address _participant) public onlyOwner {\n        require(_participant != address(0));\n        privateParticipants[_participant] = true;\n    }\n\n    /**\n     * @dev Sets new wallet where raised funds should be sent after the end of crowdsale\n     * @param _newWallet New wallet address\n     * @notice It is possible to change wallet only if crowdsale isn't finished yet\n     */\n    function setWallet(address _newWallet) public onlyOwner {\n        checkState();\n        require(crowdsaleState != State.FINISHED);\n        WalletHasChanged(wallet, _newWallet);\n        wallet = _newWallet;\n    }\n\n    /**\n     * @dev Sets new starting date for the first stage - private sale, moving all other dates by saved stage durations\n     * @param _newDate New Private Sale stage starting date\n     * @notice It is possible to change starting date only if crowdsale is not started yet\n     */\n    function setNewStartDate(uint256 _newDate) public onlyOwner {\n        checkState();\n        require(crowdsaleState == State.NOT_STARTED);\n        StartDateMoved(privateSaleStartDate, _newDate);\n        setDates(_newDate, privateSaleDuration, preIcoDuration, icoDuration);\n    }\n\n    /**\n     * @dev Manually reserves tokens for receiver\n     * @param _receiver Token receiver wallet address\n     * @param _amount Amount of tokens to send\n     * @notice Intended to be used by backend to manually give tokens to BTC investors\n     */\n    function manualReserve(address _receiver, uint256 _amount) public onlyOwner nonReentrant {\n        checkState();\n        require(_receiver != address(0));\n        require(_amount > 0);\n        require(crowdsaleState != State.NOT_STARTED && crowdsaleState != State.FINISHED);\n        require(tokensSold.add(_amount) < currentHardCap);\n\n        if (crowdsaleState == State.PRIVATE) {\n            require(privateParticipants[_receiver]);\n        }\n\n        //KYC check\n        require(hasPassedKYC[_receiver]);\n\n        if (token.balanceOf(_receiver) == 0) {\n            investorsList.push(_receiver);\n        }\n\n        tokensSold = tokensSold.add(_amount);\n        tokensOrdered[_receiver] = tokensOrdered[_receiver].add(_amount);\n\n        TokensAreOrdered(_receiver, _amount, weiInFiat);\n    }\n\n    /**\n     * @dev Sends raised funds to the beneficiary wallet\n     * @notice It is possible to withdraw raised funds only if crowdsale is finished\n     */\n    function withdraw() public onlyOwner nonReentrant {\n        checkState();\n        require(crowdsaleState == State.FINISHED);\n\n        FundsWithdrawn(wallet, weiRaised);\n        wallet.transfer(weiRaised);\n    }\n\n    /**\n     * @dev Set stages start dates and durations\n     * @param _privateSaleStartDate Private Sale stage start date in Unix timestamp\n     * @param _privateSaleDuration Private Sale stage duration in Unix timestamp\n     * @param _preIcoDuration Pre-ICO stage duration in Unix timestamp\n     * @param _icoDuration ICO stage duration in Unix timestamp\n     */\n    function setDates(uint256 _privateSaleStartDate, uint256 _privateSaleDuration, uint256 _preIcoDuration, uint256 _icoDuration) private {\n        privateSaleStartDate = _privateSaleStartDate;\n        privateSaleDuration = _privateSaleDuration;\n        preIcoStartDate = privateSaleStartDate + privateSaleDuration;\n        preIcoDuration = _preIcoDuration;\n        icoStartDate = preIcoStartDate + preIcoDuration;\n        icoDuration = _icoDuration;\n    }\n}\n",
  "sourcePath": "/home/lev/go/src/WindToken/contracts/Crowdsale.sol",
  "compiler": {
    "name": "solc",
    "version": "0.4.21+commit.dfe3193c.Emscripten.clang"
  },
  "schemaVersion": "2.0.0",
  "updatedAt": "2018-03-22T10:23:51.162Z"
}