{
  "contractName": "UsingFiatPrice",
  "abi": [
    {
      "constant": true,
      "inputs": [],
      "name": "fiatSymbol",
      "outputs": [
        {
          "name": "",
          "type": "string"
        }
      ],
      "payable": false,
      "stateMutability": "view",
      "type": "function"
    },
    {
      "constant": true,
      "inputs": [],
      "name": "owner",
      "outputs": [
        {
          "name": "",
          "type": "address"
        }
      ],
      "payable": false,
      "stateMutability": "view",
      "type": "function"
    },
    {
      "constant": true,
      "inputs": [],
      "name": "weiInFiat",
      "outputs": [
        {
          "name": "",
          "type": "uint256"
        }
      ],
      "payable": false,
      "stateMutability": "view",
      "type": "function"
    },
    {
      "constant": true,
      "inputs": [],
      "name": "lastUpdated",
      "outputs": [
        {
          "name": "",
          "type": "uint256"
        }
      ],
      "payable": false,
      "stateMutability": "view",
      "type": "function"
    },
    {
      "constant": false,
      "inputs": [
        {
          "name": "newOwner",
          "type": "address"
        }
      ],
      "name": "transferOwnership",
      "outputs": [],
      "payable": false,
      "stateMutability": "nonpayable",
      "type": "function"
    },
    {
      "constant": true,
      "inputs": [],
      "name": "fiatDecimals",
      "outputs": [
        {
          "name": "",
          "type": "uint256"
        }
      ],
      "payable": false,
      "stateMutability": "view",
      "type": "function"
    },
    {
      "inputs": [
        {
          "name": "_fiatSymbol",
          "type": "string"
        },
        {
          "name": "_fiatDecimals",
          "type": "uint256"
        }
      ],
      "payable": false,
      "stateMutability": "nonpayable",
      "type": "constructor"
    },
    {
      "anonymous": false,
      "inputs": [
        {
          "indexed": false,
          "name": "_oldRate",
          "type": "uint256"
        },
        {
          "indexed": false,
          "name": "_newRate",
          "type": "uint256"
        }
      ],
      "name": "RateUpdated",
      "type": "event"
    },
    {
      "anonymous": false,
      "inputs": [
        {
          "indexed": true,
          "name": "previousOwner",
          "type": "address"
        },
        {
          "indexed": true,
          "name": "newOwner",
          "type": "address"
        }
      ],
      "name": "OwnershipTransferred",
      "type": "event"
    },
    {
      "constant": false,
      "inputs": [
        {
          "name": "_weiInFiat",
          "type": "uint256"
        }
      ],
      "name": "updateWeiInFiat",
      "outputs": [],
      "payable": false,
      "stateMutability": "nonpayable",
      "type": "function"
    }
  ],
  "bytecode": "0x6060604052341561000f57600080fd5b6040516104e53803806104e58339810160405280805182019190602001805160008054600160a060020a03191633600160a060020a03161790559150506002811080159061005e575060128111155b151561006957600080fd5b600182805161007c929160200190610086565b5060025550610121565b828054600181600116156101000203166002900490600052602060002090601f016020900481019282601f106100c757805160ff19168380011785556100f4565b828001600101855582156100f4579182015b828111156100f45782518255916020019190600101906100d9565b50610100929150610104565b5090565b61011e91905b80821115610100576000815560010161010a565b90565b6103b5806101306000396000f3006060604052600436106100825763ffffffff7c01000000000000000000000000000000000000000000000000000000006000350416631755bf3d811461008757806327631d021461009f5780638da5cb5b14610129578063b24a129014610158578063d0b06f5d1461017d578063f2fde38b14610190578063f5890e46146101af575b600080fd5b341561009257600080fd5b61009d6004356101c2565b005b34156100aa57600080fd5b6100b261022f565b60405160208082528190810183818151815260200191508051906020019080838360005b838110156100ee5780820151838201526020016100d6565b50505050905090810190601f16801561011b5780820380516001836020036101000a031916815260200191505b509250505060405180910390f35b341561013457600080fd5b61013c6102cd565b604051600160a060020a03909116815260200160405180910390f35b341561016357600080fd5b61016b6102dc565b60405190815260200160405180910390f35b341561018857600080fd5b61016b6102e2565b341561019b57600080fd5b61009d600160a060020a03600435166102e8565b34156101ba57600080fd5b61016b610383565b60005433600160a060020a039081169116146101dd57600080fd5b600081116101ea57600080fd5b7fb38780ddde1f073d91c150de2696f3f7085883648ba21cc5ef01029cb21d19166003548260405191825260208201526040908101905180910390a160035542600455565b60018054600181600116156101000203166002900480601f0160208091040260200160405190810160405280929190818152602001828054600181600116156101000203166002900480156102c55780601f1061029a576101008083540402835291602001916102c5565b820191906000526020600020905b8154815290600101906020018083116102a857829003601f168201915b505050505081565b600054600160a060020a031681565b60035481565b60045481565b60005433600160a060020a0390811691161461030357600080fd5b600160a060020a038116151561031857600080fd5b600054600160a060020a0380831691167f8be0079c531659141344cd1fd0a4f28419497f9722a3daafe3b4186f6b6457e060405160405180910390a36000805473ffffffffffffffffffffffffffffffffffffffff1916600160a060020a0392909216919091179055565b600254815600a165627a7a723058205ba80e060a9e4562c01952b5d7fcee9d593f93f0a896ca816079d2955dedf43b0029",
  "source": "pragma solidity ^0.4.18;\n\nimport './Ownable.sol';\n\n/**\n * @title UsingFiatPrice\n * @dev General contract for updating ETH to fiat currency exchange rate from external source\n*/\ncontract UsingFiatPrice is Ownable {\n\n    /**\n     * @title fiatSymbol\n     * @dev Fiat currency symbol for informational purposes only\n     * @notice Once it is set, it cannot be changed without redeploying contract\n    */\n    string public fiatSymbol;\n\n    /**\n     * @title fiatDecimals\n     * @dev Number of decimal places in a used currency. Can be used for calculations or for informational purposes only\n    */\n    uint256 public fiatDecimals;\n\n    /**\n     * @title weiInFiat\n     * @dev Amount of wei in minimum fracture of the fiat currency\n     * @notice Intended to be used for calculating number of bought tokens with token price set in fiat currency\n     */\n    uint256 public weiInFiat;\n\n    /**\n     * @title lastUpdated\n     * @dev Unix timestamp which shows last rate update time\n     */\n    uint256 public lastUpdated;\n\n    /**\n     * @dev This event is raised when exchange rate is updated\n     * @param _oldRate Old exchange rate - before update\n     * @param _newRate New exchange rate - after update\n     */\n    event RateUpdated(uint256 _oldRate, uint256 _newRate);\n\n    /**\n     * @dev UsingFiatPrice constructor\n     * @param _fiatSymbol Fiat currency symbol for informational purposes only\n     * @param _fiatDecimals Number of decimal places in a used fiat currency. E.g. _fiatDecimals is 2 for USD - minimal fracture of USD is 0.01 USD\n     */\n    function UsingFiatPrice(string _fiatSymbol, uint256 _fiatDecimals) public {\n        require(_fiatDecimals >= 2 && _fiatDecimals <= 18);\n        fiatSymbol = _fiatSymbol;\n        fiatDecimals = _fiatDecimals;\n    }\n\n    /**\n     * @dev Updates wei to fiat currency exchange rate\n     * @param _weiInFiat Number of wei in minimum fracture of \"fiatSymbol\". E.g. Number of wei in 0.01 USD\n     */\n    function updateWeiInFiat(uint256 _weiInFiat) external onlyOwner {\n        require(_weiInFiat > 0);\n        RateUpdated(weiInFiat, _weiInFiat);\n        weiInFiat = _weiInFiat;\n        lastUpdated = now;\n    }\n}\n",
  "sourcePath": "/home/lev/go/src/WindToken/contracts/UsingFiatPrice.sol",
  "compiler": {
    "name": "solc",
    "version": "0.4.19+commit.c4cbbb05.Emscripten.clang"
  },
  "schemaVersion": "2.0.0",
  "updatedAt": "2018-04-05T04:26:06.660Z"
}