{
  "contractName": "WindMineToken",
  "abi": [
    {
      "constant": true,
      "inputs": [],
      "name": "name",
      "outputs": [
        {
          "name": "",
          "type": "string"
        }
      ],
      "payable": false,
      "stateMutability": "view",
      "type": "function"
    },
    {
      "constant": false,
      "inputs": [
        {
          "name": "_spender",
          "type": "address"
        },
        {
          "name": "_value",
          "type": "uint256"
        }
      ],
      "name": "approve",
      "outputs": [
        {
          "name": "",
          "type": "bool"
        }
      ],
      "payable": false,
      "stateMutability": "nonpayable",
      "type": "function"
    },
    {
      "constant": true,
      "inputs": [],
      "name": "totalSupply",
      "outputs": [
        {
          "name": "",
          "type": "uint256"
        }
      ],
      "payable": false,
      "stateMutability": "view",
      "type": "function"
    },
    {
      "constant": true,
      "inputs": [],
      "name": "foundersWallet",
      "outputs": [
        {
          "name": "",
          "type": "address"
        }
      ],
      "payable": false,
      "stateMutability": "view",
      "type": "function"
    },
    {
      "constant": false,
      "inputs": [
        {
          "name": "_from",
          "type": "address"
        },
        {
          "name": "_to",
          "type": "address"
        },
        {
          "name": "_value",
          "type": "uint256"
        }
      ],
      "name": "transferFrom",
      "outputs": [
        {
          "name": "",
          "type": "bool"
        }
      ],
      "payable": false,
      "stateMutability": "nonpayable",
      "type": "function"
    },
    {
      "constant": true,
      "inputs": [],
      "name": "decimals",
      "outputs": [
        {
          "name": "",
          "type": "uint256"
        }
      ],
      "payable": false,
      "stateMutability": "view",
      "type": "function"
    },
    {
      "constant": false,
      "inputs": [
        {
          "name": "_spender",
          "type": "address"
        },
        {
          "name": "_subtractedValue",
          "type": "uint256"
        }
      ],
      "name": "decreaseApproval",
      "outputs": [
        {
          "name": "",
          "type": "bool"
        }
      ],
      "payable": false,
      "stateMutability": "nonpayable",
      "type": "function"
    },
    {
      "constant": true,
      "inputs": [
        {
          "name": "_owner",
          "type": "address"
        }
      ],
      "name": "balanceOf",
      "outputs": [
        {
          "name": "balance",
          "type": "uint256"
        }
      ],
      "payable": false,
      "stateMutability": "view",
      "type": "function"
    },
    {
      "constant": true,
      "inputs": [],
      "name": "foundersReserve",
      "outputs": [
        {
          "name": "",
          "type": "uint256"
        }
      ],
      "payable": false,
      "stateMutability": "view",
      "type": "function"
    },
    {
      "constant": true,
      "inputs": [],
      "name": "owner",
      "outputs": [
        {
          "name": "",
          "type": "address"
        }
      ],
      "payable": false,
      "stateMutability": "view",
      "type": "function"
    },
    {
      "constant": true,
      "inputs": [],
      "name": "symbol",
      "outputs": [
        {
          "name": "",
          "type": "string"
        }
      ],
      "payable": false,
      "stateMutability": "view",
      "type": "function"
    },
    {
      "constant": false,
      "inputs": [
        {
          "name": "_to",
          "type": "address"
        },
        {
          "name": "_value",
          "type": "uint256"
        }
      ],
      "name": "transfer",
      "outputs": [
        {
          "name": "",
          "type": "bool"
        }
      ],
      "payable": false,
      "stateMutability": "nonpayable",
      "type": "function"
    },
    {
      "constant": false,
      "inputs": [
        {
          "name": "_spender",
          "type": "address"
        },
        {
          "name": "_addedValue",
          "type": "uint256"
        }
      ],
      "name": "increaseApproval",
      "outputs": [
        {
          "name": "",
          "type": "bool"
        }
      ],
      "payable": false,
      "stateMutability": "nonpayable",
      "type": "function"
    },
    {
      "constant": true,
      "inputs": [
        {
          "name": "_owner",
          "type": "address"
        },
        {
          "name": "_spender",
          "type": "address"
        }
      ],
      "name": "allowance",
      "outputs": [
        {
          "name": "",
          "type": "uint256"
        }
      ],
      "payable": false,
      "stateMutability": "view",
      "type": "function"
    },
    {
      "constant": false,
      "inputs": [
        {
          "name": "newOwner",
          "type": "address"
        }
      ],
      "name": "transferOwnership",
      "outputs": [],
      "payable": false,
      "stateMutability": "nonpayable",
      "type": "function"
    },
    {
      "inputs": [
        {
          "name": "_foundersWallet",
          "type": "address"
        }
      ],
      "payable": false,
      "stateMutability": "nonpayable",
      "type": "constructor"
    },
    {
      "anonymous": false,
      "inputs": [
        {
          "indexed": true,
          "name": "previousOwner",
          "type": "address"
        },
        {
          "indexed": true,
          "name": "newOwner",
          "type": "address"
        }
      ],
      "name": "OwnershipTransferred",
      "type": "event"
    },
    {
      "anonymous": false,
      "inputs": [
        {
          "indexed": true,
          "name": "owner",
          "type": "address"
        },
        {
          "indexed": true,
          "name": "spender",
          "type": "address"
        },
        {
          "indexed": false,
          "name": "value",
          "type": "uint256"
        }
      ],
      "name": "Approval",
      "type": "event"
    },
    {
      "anonymous": false,
      "inputs": [
        {
          "indexed": true,
          "name": "from",
          "type": "address"
        },
        {
          "indexed": true,
          "name": "to",
          "type": "address"
        },
        {
          "indexed": false,
          "name": "value",
          "type": "uint256"
        }
      ],
      "name": "Transfer",
      "type": "event"
    }
  ],
  "bytecode": "0x6060604052341561000f57600080fd5b604051602080610a988339810160405280805160038054600160a060020a03191633600160a060020a039081169190911790915590925082161515905061005557600080fd5b6638d7ea4c680000600181905560048054600160a060020a031916600160a060020a03841617905561009b9066071afd498d00006401000000006100d281026109511704565b600160a060020a033381166000908152602081905260408082209390935560045490911681522066071afd498d00009055506100e4565b6000828211156100de57fe5b50900390565b6109a5806100f36000396000f3006060604052600436106100da5763ffffffff7c010000000000000000000000000000000000000000000000000000000060003504166306fdde0381146100df578063095ea7b31461016957806318160ddd1461019f5780631bfaf155146101c457806323b872dd146101f3578063313ce5671461021b578063661884631461022e57806370a08231146102505780637b86120a1461026f5780638da5cb5b1461028257806395d89b4114610295578063a9059cbb146102a8578063d73dd623146102ca578063dd62ed3e146102ec578063f2fde38b14610311575b600080fd5b34156100ea57600080fd5b6100f2610332565b60405160208082528190810183818151815260200191508051906020019080838360005b8381101561012e578082015183820152602001610116565b50505050905090810190601f16801561015b5780820380516001836020036101000a031916815260200191505b509250505060405180910390f35b341561017457600080fd5b61018b600160a060020a0360043516602435610369565b604051901515815260200160405180910390f35b34156101aa57600080fd5b6101b26103d5565b60405190815260200160405180910390f35b34156101cf57600080fd5b6101d76103db565b604051600160a060020a03909116815260200160405180910390f35b34156101fe57600080fd5b61018b600160a060020a03600435811690602435166044356103ea565b341561022657600080fd5b6101b261056a565b341561023957600080fd5b61018b600160a060020a036004351660243561056f565b341561025b57600080fd5b6101b2600160a060020a0360043516610669565b341561027a57600080fd5b6101b2610684565b341561028d57600080fd5b6101d761068f565b34156102a057600080fd5b6100f261069e565b34156102b357600080fd5b61018b600160a060020a03600435166024356106d5565b34156102d557600080fd5b61018b600160a060020a03600435166024356107e7565b34156102f757600080fd5b6101b2600160a060020a036004358116906024351661088b565b341561031c57600080fd5b610330600160a060020a03600435166108b6565b005b60408051908101604052600881527f57696e644d696e65000000000000000000000000000000000000000000000000602082015281565b600160a060020a03338116600081815260026020908152604080832094871680845294909152808220859055909291907f8c5be1e5ebec7d5bd14f71427d1e84f3dd0314c0f7b2291e5b200ac8c7c3b9259085905190815260200160405180910390a350600192915050565b60015490565b600454600160a060020a031681565b6000600160a060020a038316151561040157600080fd5b600160a060020a03841660009081526020819052604090205482111561042657600080fd5b600160a060020a038085166000908152600260209081526040808320339094168352929052205482111561045957600080fd5b600160a060020a038416600090815260208190526040902054610482908363ffffffff61095116565b600160a060020a0380861660009081526020819052604080822093909355908516815220546104b7908363ffffffff61096316565b600160a060020a03808516600090815260208181526040808320949094558783168252600281528382203390931682529190915220546104fd908363ffffffff61095116565b600160a060020a03808616600081815260026020908152604080832033861684529091529081902093909355908516917fddf252ad1be2c89b69c2b068fc378daa952ba7f163c4a11628f55a4df523b3ef9085905190815260200160405180910390a35060019392505050565b600881565b600160a060020a033381166000908152600260209081526040808320938616835292905290812054808311156105cc57600160a060020a033381166000908152600260209081526040808320938816835292905290812055610603565b6105dc818463ffffffff61095116565b600160a060020a033381166000908152600260209081526040808320938916835292905220555b600160a060020a0333811660008181526002602090815260408083209489168084529490915290819020547f8c5be1e5ebec7d5bd14f71427d1e84f3dd0314c0f7b2291e5b200ac8c7c3b925915190815260200160405180910390a35060019392505050565b600160a060020a031660009081526020819052604090205490565b66071afd498d000081565b600354600160a060020a031681565b60408051908101604052600381527f574d440000000000000000000000000000000000000000000000000000000000602082015281565b6000600160a060020a03831615156106ec57600080fd5b600160a060020a03331660009081526020819052604090205482111561071157600080fd5b600160a060020a03331660009081526020819052604090205461073a908363ffffffff61095116565b600160a060020a03338116600090815260208190526040808220939093559085168152205461076f908363ffffffff61096316565b60008085600160a060020a0316600160a060020a031681526020019081526020016000208190555082600160a060020a031633600160a060020a03167fddf252ad1be2c89b69c2b068fc378daa952ba7f163c4a11628f55a4df523b3ef8460405190815260200160405180910390a350600192915050565b600160a060020a03338116600090815260026020908152604080832093861683529290529081205461081f908363ffffffff61096316565b600160a060020a0333811660008181526002602090815260408083209489168084529490915290819020849055919290917f8c5be1e5ebec7d5bd14f71427d1e84f3dd0314c0f7b2291e5b200ac8c7c3b92591905190815260200160405180910390a350600192915050565b600160a060020a03918216600090815260026020908152604080832093909416825291909152205490565b60035433600160a060020a039081169116146108d157600080fd5b600160a060020a03811615156108e657600080fd5b600354600160a060020a0380831691167f8be0079c531659141344cd1fd0a4f28419497f9722a3daafe3b4186f6b6457e060405160405180910390a36003805473ffffffffffffffffffffffffffffffffffffffff1916600160a060020a0392909216919091179055565b60008282111561095d57fe5b50900390565b60008282018381101561097257fe5b93925050505600a165627a7a723058209ae951a65a429ccb1e39efba99272460bfe85aab0c83e52eb5a516a73fc3151c0029",
  "source": "pragma solidity ^0.4.18;\n\nimport './SafeMath.sol';\nimport './StandardToken.sol';\nimport './Ownable.sol';\n\n/**\n * @title WindMineToken\n * @dev WindMineToken contract, which extends OpenZeppelin's StandardToken\n */\ncontract WindMineToken is StandardToken, Ownable {\n    using SafeMath for uint256;\n\n    /**\n     * @title decimals\n     * @dev Number of decimal places\n     */\n    uint256 public constant decimals = 8;\n\n    /**\n     * @title foundersReserve\n     * @dev Amount of tokens, which should be reserved to founder's address\n     */\n    uint256 public constant foundersReserve = 20000000 * (10 ** decimals);\n\n    /**\n     * @title symbol\n     * @dev Token symbol\n     */\n    string public constant symbol = \"WMD\";\n\n    /**\n     * @title name\n     * @dev Full token name\n     */\n    string public constant name = \"WindMine\";\n\n    /**\n     * @title foundersWallet\n     * @dev Founder's wallet address, where to send founder's token reserve\n     */\n    address public foundersWallet;\n\n    /**\n     * @dev WindMineToken constructor. Sets founder's wallet from constructor parameter, reserved tokens to it, all the rest\n     * are put to the sender's balance.\n     * @param _foundersWallet Founder's wallet address where to send founder's reserve of 20 mln tokens\n     */\n    function WindMineToken(address _foundersWallet) public {\n        require(_foundersWallet != address(0));\n        totalSupply_ = 160000000 * (10 ** decimals);\n        foundersWallet = _foundersWallet;\n        balances[msg.sender] = totalSupply_.sub(foundersReserve);\n        balances[foundersWallet] = foundersReserve;\n    }\n\n}\n",
  "sourcePath": "/home/lev/go/src/WindToken/contracts/WindMineToken.sol",
  "compiler": {
    "name": "solc",
    "version": "0.4.19+commit.c4cbbb05.Emscripten.clang"
  },
  "schemaVersion": "2.0.0",
  "updatedAt": "2018-04-05T04:26:06.664Z"
}